{
  "_format": "hh-sol-artifact-1",
  "contractName": "dMarket",
  "sourceName": "contracts/dMarket.sol",
  "abi": [
    {
      "inputs": [],
      "stateMutability": "nonpayable",
      "type": "constructor"
    },
    {
      "anonymous": false,
      "inputs": [
        {
          "indexed": true,
          "internalType": "address",
          "name": "owner",
          "type": "address"
        },
        {
          "indexed": true,
          "internalType": "address",
          "name": "approved",
          "type": "address"
        },
        {
          "indexed": true,
          "internalType": "uint256",
          "name": "tokenId",
          "type": "uint256"
        }
      ],
      "name": "Approval",
      "type": "event"
    },
    {
      "anonymous": false,
      "inputs": [
        {
          "indexed": true,
          "internalType": "address",
          "name": "owner",
          "type": "address"
        },
        {
          "indexed": true,
          "internalType": "address",
          "name": "operator",
          "type": "address"
        },
        {
          "indexed": false,
          "internalType": "bool",
          "name": "approved",
          "type": "bool"
        }
      ],
      "name": "ApprovalForAll",
      "type": "event"
    },
    {
      "anonymous": false,
      "inputs": [
        {
          "indexed": true,
          "internalType": "address",
          "name": "_buyer",
          "type": "address"
        },
        {
          "indexed": true,
          "internalType": "uint256",
          "name": "_tokenId",
          "type": "uint256"
        },
        {
          "indexed": false,
          "internalType": "uint256",
          "name": "_price",
          "type": "uint256"
        }
      ],
      "name": "BuyNFT",
      "type": "event"
    },
    {
      "anonymous": false,
      "inputs": [
        {
          "indexed": true,
          "internalType": "uint256",
          "name": "_tokenId",
          "type": "uint256"
        },
        {
          "indexed": false,
          "internalType": "string",
          "name": "_tokenURI",
          "type": "string"
        },
        {
          "indexed": true,
          "internalType": "address",
          "name": "_owner",
          "type": "address"
        },
        {
          "indexed": false,
          "internalType": "uint256",
          "name": "_price",
          "type": "uint256"
        }
      ],
      "name": "CreateNFT",
      "type": "event"
    },
    {
      "anonymous": false,
      "inputs": [
        {
          "indexed": true,
          "internalType": "address",
          "name": "from",
          "type": "address"
        },
        {
          "indexed": true,
          "internalType": "address",
          "name": "to",
          "type": "address"
        },
        {
          "indexed": true,
          "internalType": "uint256",
          "name": "tokenId",
          "type": "uint256"
        }
      ],
      "name": "Transfer",
      "type": "event"
    },
    {
      "anonymous": false,
      "inputs": [
        {
          "indexed": true,
          "internalType": "address",
          "name": "_from",
          "type": "address"
        },
        {
          "indexed": true,
          "internalType": "address",
          "name": "_to",
          "type": "address"
        },
        {
          "indexed": true,
          "internalType": "uint256",
          "name": "_tokenId",
          "type": "uint256"
        }
      ],
      "name": "TransferNFT",
      "type": "event"
    },
    {
      "inputs": [
        {
          "internalType": "address",
          "name": "to",
          "type": "address"
        },
        {
          "internalType": "uint256",
          "name": "tokenId",
          "type": "uint256"
        }
      ],
      "name": "approve",
      "outputs": [],
      "stateMutability": "nonpayable",
      "type": "function"
    },
    {
      "inputs": [
        {
          "internalType": "address",
          "name": "owner",
          "type": "address"
        }
      ],
      "name": "balanceOf",
      "outputs": [
        {
          "internalType": "uint256",
          "name": "",
          "type": "uint256"
        }
      ],
      "stateMutability": "view",
      "type": "function"
    },
    {
      "inputs": [
        {
          "internalType": "uint256",
          "name": "_tokenId",
          "type": "uint256"
        }
      ],
      "name": "buyNFT",
      "outputs": [],
      "stateMutability": "payable",
      "type": "function"
    },
    {
      "inputs": [
        {
          "internalType": "string",
          "name": "_tokenURI",
          "type": "string"
        },
        {
          "internalType": "uint256",
          "name": "_transfers",
          "type": "uint256"
        },
        {
          "internalType": "string",
          "name": "_issueTime",
          "type": "string"
        },
        {
          "internalType": "string",
          "name": "_duration",
          "type": "string"
        },
        {
          "internalType": "uint256",
          "name": "_serialNo",
          "type": "uint256"
        },
        {
          "internalType": "address",
          "name": "_issuer",
          "type": "address"
        },
        {
          "internalType": "bool",
          "name": "isSoulbound",
          "type": "bool"
        }
      ],
      "name": "createNFT",
      "outputs": [],
      "stateMutability": "payable",
      "type": "function"
    },
    {
      "inputs": [
        {
          "internalType": "string",
          "name": "_tokenURI",
          "type": "string"
        }
      ],
      "name": "formatTokenURI",
      "outputs": [
        {
          "internalType": "string",
          "name": "",
          "type": "string"
        }
      ],
      "stateMutability": "pure",
      "type": "function"
    },
    {
      "inputs": [
        {
          "internalType": "uint256",
          "name": "tokenId",
          "type": "uint256"
        }
      ],
      "name": "getApproved",
      "outputs": [
        {
          "internalType": "address",
          "name": "",
          "type": "address"
        }
      ],
      "stateMutability": "view",
      "type": "function"
    },
    {
      "inputs": [],
      "name": "getNFTCount",
      "outputs": [
        {
          "internalType": "uint256",
          "name": "",
          "type": "uint256"
        }
      ],
      "stateMutability": "view",
      "type": "function"
    },
    {
      "inputs": [
        {
          "internalType": "uint256",
          "name": "_tokenId",
          "type": "uint256"
        }
      ],
      "name": "getNFTMetaData",
      "outputs": [
        {
          "internalType": "uint256",
          "name": "_price",
          "type": "uint256"
        },
        {
          "internalType": "string",
          "name": "_issueTime",
          "type": "string"
        },
        {
          "internalType": "string",
          "name": "_duration",
          "type": "string"
        },
        {
          "internalType": "uint256",
          "name": "_serialNo",
          "type": "uint256"
        },
        {
          "internalType": "address",
          "name": "_issuer",
          "type": "address"
        }
      ],
      "stateMutability": "view",
      "type": "function"
    },
    {
      "inputs": [
        {
          "internalType": "address",
          "name": "owner",
          "type": "address"
        },
        {
          "internalType": "address",
          "name": "operator",
          "type": "address"
        }
      ],
      "name": "isApprovedForAll",
      "outputs": [
        {
          "internalType": "bool",
          "name": "",
          "type": "bool"
        }
      ],
      "stateMutability": "view",
      "type": "function"
    },
    {
      "inputs": [
        {
          "internalType": "uint256",
          "name": "_tokenId",
          "type": "uint256"
        },
        {
          "internalType": "uint256",
          "name": "_price",
          "type": "uint256"
        }
      ],
      "name": "markNFTForSale",
      "outputs": [],
      "stateMutability": "nonpayable",
      "type": "function"
    },
    {
      "inputs": [],
      "name": "name",
      "outputs": [
        {
          "internalType": "string",
          "name": "",
          "type": "string"
        }
      ],
      "stateMutability": "view",
      "type": "function"
    },
    {
      "inputs": [
        {
          "internalType": "uint256",
          "name": "",
          "type": "uint256"
        }
      ],
      "name": "nfts",
      "outputs": [
        {
          "internalType": "uint256",
          "name": "tokenId",
          "type": "uint256"
        },
        {
          "internalType": "uint256",
          "name": "transfers",
          "type": "uint256"
        },
        {
          "internalType": "address payable",
          "name": "owner",
          "type": "address"
        },
        {
          "internalType": "bool",
          "name": "isForSale",
          "type": "bool"
        },
        {
          "internalType": "address",
          "name": "issuer",
          "type": "address"
        },
        {
          "internalType": "uint256",
          "name": "order_serial_number",
          "type": "uint256"
        },
        {
          "internalType": "string",
          "name": "issue_time",
          "type": "string"
        },
        {
          "internalType": "string",
          "name": "duration",
          "type": "string"
        },
        {
          "internalType": "bool",
          "name": "isSoulbound",
          "type": "bool"
        }
      ],
      "stateMutability": "view",
      "type": "function"
    },
    {
      "inputs": [],
      "name": "owner",
      "outputs": [
        {
          "internalType": "address payable",
          "name": "",
          "type": "address"
        }
      ],
      "stateMutability": "view",
      "type": "function"
    },
    {
      "inputs": [
        {
          "internalType": "uint256",
          "name": "tokenId",
          "type": "uint256"
        }
      ],
      "name": "ownerOf",
      "outputs": [
        {
          "internalType": "address",
          "name": "",
          "type": "address"
        }
      ],
      "stateMutability": "view",
      "type": "function"
    },
    {
      "inputs": [
        {
          "internalType": "address",
          "name": "from",
          "type": "address"
        },
        {
          "internalType": "address",
          "name": "to",
          "type": "address"
        },
        {
          "internalType": "uint256",
          "name": "tokenId",
          "type": "uint256"
        }
      ],
      "name": "safeTransferFrom",
      "outputs": [],
      "stateMutability": "nonpayable",
      "type": "function"
    },
    {
      "inputs": [
        {
          "internalType": "address",
          "name": "from",
          "type": "address"
        },
        {
          "internalType": "address",
          "name": "to",
          "type": "address"
        },
        {
          "internalType": "uint256",
          "name": "tokenId",
          "type": "uint256"
        },
        {
          "internalType": "bytes",
          "name": "data",
          "type": "bytes"
        }
      ],
      "name": "safeTransferFrom",
      "outputs": [],
      "stateMutability": "nonpayable",
      "type": "function"
    },
    {
      "inputs": [
        {
          "internalType": "address",
          "name": "operator",
          "type": "address"
        },
        {
          "internalType": "bool",
          "name": "approved",
          "type": "bool"
        }
      ],
      "name": "setApprovalForAll",
      "outputs": [],
      "stateMutability": "nonpayable",
      "type": "function"
    },
    {
      "inputs": [
        {
          "internalType": "bytes4",
          "name": "interfaceId",
          "type": "bytes4"
        }
      ],
      "name": "supportsInterface",
      "outputs": [
        {
          "internalType": "bool",
          "name": "",
          "type": "bool"
        }
      ],
      "stateMutability": "view",
      "type": "function"
    },
    {
      "inputs": [],
      "name": "symbol",
      "outputs": [
        {
          "internalType": "string",
          "name": "",
          "type": "string"
        }
      ],
      "stateMutability": "view",
      "type": "function"
    },
    {
      "inputs": [
        {
          "internalType": "uint256",
          "name": "tokenId",
          "type": "uint256"
        }
      ],
      "name": "tokenURI",
      "outputs": [
        {
          "internalType": "string",
          "name": "",
          "type": "string"
        }
      ],
      "stateMutability": "view",
      "type": "function"
    },
    {
      "inputs": [
        {
          "internalType": "address",
          "name": "from",
          "type": "address"
        },
        {
          "internalType": "address",
          "name": "to",
          "type": "address"
        },
        {
          "internalType": "uint256",
          "name": "tokenId",
          "type": "uint256"
        }
      ],
      "name": "transferFrom",
      "outputs": [],
      "stateMutability": "nonpayable",
      "type": "function"
    },
    {
      "inputs": [
        {
          "internalType": "address",
          "name": "_to",
          "type": "address"
        },
        {
          "internalType": "uint256",
          "name": "_tokenId",
          "type": "uint256"
        }
      ],
      "name": "transferNFT",
      "outputs": [],
      "stateMutability": "nonpayable",
      "type": "function"
    }
  ],
  "bytecode": "0x6080604052600160075560006009553480156200001b57600080fd5b5060408051808201825260078152661913585c9ad95d60ca1b602080830191825283518085019094526004845263111352d560e21b908401528151919291620000679160009162000098565b5080516200007d90600190602084019062000098565b5050600880546001600160a01b03191633179055506200017b565b828054620000a6906200013e565b90600052602060002090601f016020900481019282620000ca576000855562000115565b82601f10620000e557805160ff191683800117855562000115565b8280016001018555821562000115579182015b8281111562000115578251825591602001919060010190620000f8565b506200012392915062000127565b5090565b5b8082111562000123576000815560010162000128565b600181811c908216806200015357607f821691505b602082108114156200017557634e487b7160e01b600052602260045260246000fd5b50919050565b612403806200018b6000396000f3fe6080604052600436106101355760003560e01c80636352211e116100ab57806394ab67fe1161006f57806394ab67fe1461037a57806395d89b411461039a578063a22cb465146103af578063b88d4fde146103cf578063c87b56dd146103ef578063e985e9c51461040f57610135565b80636352211e146102c957806370a08231146102e957806371aee1931461030957806388ef3f73146103295780638da5cb5b1461035a57610135565b806323b872dd116100fd57806323b872dd1461020b578063265aa6211461022b57806342842e0e1461026057806351ed82881461028057806354279637146102935780635cbca74a146102b657610135565b806301ffc9a71461013a57806306fdde031461016f578063081812fc14610191578063092f6acc146101c9578063095ea7b3146101eb575b600080fd5b34801561014657600080fd5b5061015a610155366004611e26565b610458565b60405190151581526020015b60405180910390f35b34801561017b57600080fd5b506101846104ac565b6040516101669190612102565b34801561019d57600080fd5b506101b16101ac366004611f4a565b61053e565b6040516001600160a01b039091168152602001610166565b3480156101d557600080fd5b506101e96101e4366004611f62565b610565565b005b3480156101f757600080fd5b506101e9610206366004611dfd565b610668565b34801561021757600080fd5b506101e9610226366004611d20565b61077e565b34801561023757600080fd5b5061024b610246366004611f4a565b6107af565b60405161016699989796959493929190612225565b34801561026c57600080fd5b506101e961027b366004611d20565b61091d565b6101e961028e366004611f4a565b610938565b34801561029f57600080fd5b506102a8610b37565b604051908152602001610166565b6101e96102c4366004611e91565b610b4d565b3480156102d557600080fd5b506101b16102e4366004611f4a565b610dbd565b3480156102f557600080fd5b506102a8610304366004611cd4565b610e1d565b34801561031557600080fd5b50610184610324366004611e5e565b610ea3565b34801561033557600080fd5b50610349610344366004611f4a565b610ee9565b6040516101669594939291906121d7565b34801561036657600080fd5b506008546101b1906001600160a01b031681565b34801561038657600080fd5b506101e9610395366004611dfd565b611054565b3480156103a657600080fd5b50610184611165565b3480156103bb57600080fd5b506101e96103ca366004611dd4565b611174565b3480156103db57600080fd5b506101e96103ea366004611d5b565b611183565b3480156103fb57600080fd5b5061018461040a366004611f4a565b6111bb565b34801561041b57600080fd5b5061015a61042a366004611cee565b6001600160a01b03918216600090815260056020908152604080832093909416825291909152205460ff1690565b60006001600160e01b031982166380ac58cd60e01b148061048957506001600160e01b03198216635b5e139f60e01b145b806104a457506301ffc9a760e01b6001600160e01b03198316145b90505b919050565b6060600080546104bb9061230b565b80601f01602080910402602001604051908101604052809291908181526020018280546104e79061230b565b80156105345780601f1061050957610100808354040283529160200191610534565b820191906000526020600020905b81548152906001019060200180831161051757829003601f168201915b5050505050905090565b6000610549826112cd565b506000908152600460205260409020546001600160a01b031690565b6000828152600260205260409020546001600160a01b03166105c35760405162461bcd60e51b815260206004820152601260248201527113919508191bd95cc81b9bdd08195e1a5cdd60721b60448201526064015b60405180910390fd5b6000828152600a60205260409020600201546001600160a01b0316331461063b5760405162461bcd60e51b815260206004820152602660248201527f596f752063616e206e6f74206d61726b206f7468657273204e465420666f722060448201526573616c652e2160d01b60648201526084016105ba565b6000918252600a60205260409091206001810191909155600201805460ff60a01b1916600160a01b179055565b600061067382610dbd565b9050806001600160a01b0316836001600160a01b031614156106e15760405162461bcd60e51b815260206004820152602160248201527f4552433732313a20617070726f76616c20746f2063757272656e74206f776e656044820152603960f91b60648201526084016105ba565b336001600160a01b03821614806106fd57506106fd813361042a565b61076f5760405162461bcd60e51b815260206004820152603e60248201527f4552433732313a20617070726f76652063616c6c6572206973206e6f7420746f60448201527f6b656e206f776e6572206e6f7220617070726f76656420666f7220616c6c000060648201526084016105ba565b610779838361132f565b505050565b610788338261139d565b6107a45760405162461bcd60e51b81526004016105ba90612189565b61077983838361141b565b600a60205260009081526040902080546001820154600283015460038401546004850154600586018054959694956001600160a01b0380861696600160a01b90960460ff169594169391906108039061230b565b80601f016020809104026020016040519081016040528092919081815260200182805461082f9061230b565b801561087c5780601f106108515761010080835404028352916020019161087c565b820191906000526020600020905b81548152906001019060200180831161085f57829003601f168201915b5050505050908060060180546108919061230b565b80601f01602080910402602001604051908101604052809291908181526020018280546108bd9061230b565b801561090a5780601f106108df5761010080835404028352916020019161090a565b820191906000526020600020905b8154815290600101906020018083116108ed57829003601f168201915b5050506007909301549192505060ff1689565b61077983838360405180602001604052806000815250611183565b6000818152600260205260409020546001600160a01b03166109915760405162461bcd60e51b815260206004820152601260248201527113919508191bd95cc81b9bdd08195e1a5cdd60721b60448201526064016105ba565b6000818152600a6020526040902060020154600160a01b900460ff166109ef5760405162461bcd60e51b81526020600482015260136024820152724e4654206973206e6f7420666f722073616c6560681b60448201526064016105ba565b6000818152600a60205260409020600201546001600160a01b0316331415610a595760405162461bcd60e51b815260206004820152601e60248201527f596f752063616e206e6f742062757920796f7572206f776e204e46542e21000060448201526064016105ba565b6000818152600a6020526040902060020154610a7f906001600160a01b0316338361141b565b6000818152600a60205260408082206002015490516001600160a01b03909116913480156108fc02929091818181858888f19350505050158015610ac7573d6000803e3d6000fd5b506000818152600a60209081526040918290206002810180546001600160a81b0319163360ff60a01b198116919091179091556001909101549251928352839290917f5d963241241cfe9e161d13500d628058954b3febfde03e4b1f4071370e72fe2b910160405180910390a350565b60006001600754610b4891906122c8565b905090565b6009543414610b9e5760405162461bcd60e51b815260206004820152601e60248201527f596f75206d7573742070617920746865206c697374696e67207072696365000060448201526064016105ba565b610baa336007546115b7565b610bbe600754610bb989610ea3565b6115d1565b6040518061012001604052806007548152602001878152602001336001600160a01b03168152602001600015158152602001836001600160a01b03168152602001848152602001868152602001858152602001821515815250600a60006007548152602001908152602001600020600082015181600001556020820151816001015560408201518160020160006101000a8154816001600160a01b0302191690836001600160a01b0316021790555060608201518160020160146101000a81548160ff02191690831515021790555060808201518160030160006101000a8154816001600160a01b0302191690836001600160a01b0316021790555060a0820151816004015560c0820151816005019080519060200190610ce0929190611b7f565b5060e08201518051610cfc916006840191602090910190611b7f565b5061010091909101516007909101805491151560ff199092169190911790556008546040516001600160a01b03909116903480156108fc02916000818181858888f19350505050158015610d54573d6000803e3d6000fd5b5060078054906000610d6583612346565b90915550506007543390610d7b906001906122c8565b7f6bec5b594585f8c2d37d991853d8f5907b3cdd2f6bf5c0eac89f8246cc5000998989604051610dac929190612115565b60405180910390a350505050505050565b6000818152600260205260408120546001600160a01b0316806104a45760405162461bcd60e51b8152602060048201526018602482015277115490cdcc8c4e881a5b9d985b1a59081d1bdad95b88125160421b60448201526064016105ba565b60006001600160a01b038216610e875760405162461bcd60e51b815260206004820152602960248201527f4552433732313a2061646472657373207a65726f206973206e6f7420612076616044820152683634b21037bbb732b960b91b60648201526084016105ba565b506001600160a01b031660009081526003602052604090205490565b606081604051602001610eb69190611fde565b60408051601f1981840301815290829052610ed391602001612087565b6040516020818303038152906040529050919050565b6000818152600a6020526040812060018101546004820154600383015460058401805460609586958895869591949360069093019290916001600160a01b0316908490610f359061230b565b80601f0160208091040260200160405190810160405280929190818152602001828054610f619061230b565b8015610fae5780601f10610f8357610100808354040283529160200191610fae565b820191906000526020600020905b815481529060010190602001808311610f9157829003601f168201915b50505050509350828054610fc19061230b565b80601f0160208091040260200160405190810160405280929190818152602001828054610fed9061230b565b801561103a5780601f1061100f5761010080835404028352916020019161103a565b820191906000526020600020905b81548152906001019060200180831161101d57829003601f168201915b505050505092509450945094509450945091939590929450565b6000818152600a60205260409020600201546001600160a01b031633146110e35760405162461bcd60e51b815260206004820152603d60248201527f4e465420646f6573206e6f7420657869737473206f7220796f7520646f6e742060448201527f68617665207065726d697373696f6e20746f207472616e736665722e2100000060648201526084016105ba565b6000818152600a6020526040902060020154611109906001600160a01b0316838361141b565b6000818152600a602052604080822060020180546001600160a01b0319166001600160a01b0386169081179091559051839233917fa64cdec004d2859ac7547f4ed3252f53d0fa0b8dcbcc93a47894eee072714b629190a45050565b6060600180546104bb9061230b565b61117f33838361166b565b5050565b61118d338361139d565b6111a95760405162461bcd60e51b81526004016105ba90612189565b6111b58484848461173a565b50505050565b60606111c6826112cd565b600082815260066020526040812080546111df9061230b565b80601f016020809104026020016040519081016040528092919081815260200182805461120b9061230b565b80156112585780601f1061122d57610100808354040283529160200191611258565b820191906000526020600020905b81548152906001019060200180831161123b57829003601f168201915b50505050509050600061127660408051602081019091526000815290565b905080516000141561128a575090506104a7565b8151156112bc5780826040516020016112a4929190611faf565b604051602081830303815290604052925050506104a7565b6112c58461176d565b949350505050565b6000818152600260205260409020546001600160a01b031661132c5760405162461bcd60e51b8152602060048201526018602482015277115490cdcc8c4e881a5b9d985b1a59081d1bdad95b88125160421b60448201526064016105ba565b50565b600081815260046020526040902080546001600160a01b0319166001600160a01b038416908117909155819061136482610dbd565b6001600160a01b03167f8c5be1e5ebec7d5bd14f71427d1e84f3dd0314c0f7b2291e5b200ac8c7c3b92560405160405180910390a45050565b6000806113a983610dbd565b9050806001600160a01b0316846001600160a01b031614806113f057506001600160a01b0380821660009081526005602090815260408083209388168352929052205460ff165b806112c55750836001600160a01b03166114098461053e565b6001600160a01b031614949350505050565b826001600160a01b031661142e82610dbd565b6001600160a01b0316146114925760405162461bcd60e51b815260206004820152602560248201527f4552433732313a207472616e736665722066726f6d20696e636f72726563742060448201526437bbb732b960d91b60648201526084016105ba565b6001600160a01b0382166114f45760405162461bcd60e51b8152602060048201526024808201527f4552433732313a207472616e7366657220746f20746865207a65726f206164646044820152637265737360e01b60648201526084016105ba565b6114ff60008261132f565b6001600160a01b03831660009081526003602052604081208054600192906115289084906122c8565b90915550506001600160a01b038216600090815260036020526040812080546001929061155690849061229c565b909155505060008181526002602052604080822080546001600160a01b0319166001600160a01b0386811691821790925591518493918716917fddf252ad1be2c89b69c2b068fc378daa952ba7f163c4a11628f55a4df523b3ef91a4610779565b61117f8282604051806020016040528060008152506117e1565b6000828152600260205260409020546001600160a01b031661164c5760405162461bcd60e51b815260206004820152602e60248201527f45524337323155524953746f726167653a2055524920736574206f66206e6f6e60448201526d32bc34b9ba32b73a103a37b5b2b760911b60648201526084016105ba565b6000828152600660209081526040909120825161077992840190611b7f565b816001600160a01b0316836001600160a01b031614156116cd5760405162461bcd60e51b815260206004820152601960248201527f4552433732313a20617070726f766520746f2063616c6c65720000000000000060448201526064016105ba565b6001600160a01b03838116600081815260056020908152604080832094871680845294825291829020805460ff191686151590811790915591519182527f17307eab39ab6107e8899845ad3d59bd9653f200f220920489ca2b5937696c31910160405180910390a3505050565b61174584848461141b565b61175184848484611814565b6111b55760405162461bcd60e51b81526004016105ba90612137565b6060611778826112cd565b600061178f60408051602081019091526000815290565b905060008151116117af57604051806020016040528060008152506117da565b806117b984611921565b6040516020016117ca929190611faf565b6040516020818303038152906040525b9392505050565b6117eb8383611a3c565b6117f86000848484611814565b6107795760405162461bcd60e51b81526004016105ba90612137565b60006001600160a01b0384163b1561191657604051630a85bd0160e11b81526001600160a01b0385169063150b7a02906118589033908990889088906004016120c5565b602060405180830381600087803b15801561187257600080fd5b505af19250505080156118a2575060408051601f3d908101601f1916820190925261189f91810190611e42565b60015b6118fc573d8080156118d0576040519150601f19603f3d011682016040523d82523d6000602084013e6118d5565b606091505b5080516118f45760405162461bcd60e51b81526004016105ba90612137565b805181602001fd5b6001600160e01b031916630a85bd0160e11b1490506112c5565b506001949350505050565b60608161194657506040805180820190915260018152600360fc1b60208201526104a7565b8160005b8115611970578061195a81612346565b91506119699050600a836122b4565b915061194a565b60008167ffffffffffffffff81111561199957634e487b7160e01b600052604160045260246000fd5b6040519080825280601f01601f1916602001820160405280156119c3576020820181803683370190505b5090505b84156112c5576119d86001836122c8565b91506119e5600a86612361565b6119f090603061229c565b60f81b818381518110611a1357634e487b7160e01b600052603260045260246000fd5b60200101906001600160f81b031916908160001a905350611a35600a866122b4565b94506119c7565b6001600160a01b038216611a925760405162461bcd60e51b815260206004820181905260248201527f4552433732313a206d696e7420746f20746865207a65726f206164647265737360448201526064016105ba565b6000818152600260205260409020546001600160a01b031615611af75760405162461bcd60e51b815260206004820152601c60248201527f4552433732313a20746f6b656e20616c7265616479206d696e7465640000000060448201526064016105ba565b6001600160a01b0382166000908152600360205260408120805460019290611b2090849061229c565b909155505060008181526002602052604080822080546001600160a01b0319166001600160a01b03861690811790915590518392907fddf252ad1be2c89b69c2b068fc378daa952ba7f163c4a11628f55a4df523b3ef908290a461117f565b828054611b8b9061230b565b90600052602060002090601f016020900481019282611bad5760008555611bf3565b82601f10611bc657805160ff1916838001178555611bf3565b82800160010185558215611bf3579182015b82811115611bf3578251825591602001919060010190611bd8565b50611bff929150611c03565b5090565b5b80821115611bff5760008155600101611c04565b600067ffffffffffffffff80841115611c3357611c336123a1565b604051601f8501601f19908116603f01168101908282118183101715611c5b57611c5b6123a1565b81604052809350858152868686011115611c7457600080fd5b858560208301376000602087830101525050509392505050565b80356001600160a01b03811681146104a757600080fd5b803580151581146104a757600080fd5b600082601f830112611cc5578081fd5b6117da83833560208501611c18565b600060208284031215611ce5578081fd5b6117da82611c8e565b60008060408385031215611d00578081fd5b611d0983611c8e565b9150611d1760208401611c8e565b90509250929050565b600080600060608486031215611d34578081fd5b611d3d84611c8e565b9250611d4b60208501611c8e565b9150604084013590509250925092565b60008060008060808587031215611d70578081fd5b611d7985611c8e565b9350611d8760208601611c8e565b925060408501359150606085013567ffffffffffffffff811115611da9578182fd5b8501601f81018713611db9578182fd5b611dc887823560208401611c18565b91505092959194509250565b60008060408385031215611de6578182fd5b611def83611c8e565b9150611d1760208401611ca5565b60008060408385031215611e0f578182fd5b611e1883611c8e565b946020939093013593505050565b600060208284031215611e37578081fd5b81356117da816123b7565b600060208284031215611e53578081fd5b81516117da816123b7565b600060208284031215611e6f578081fd5b813567ffffffffffffffff811115611e85578182fd5b6112c584828501611cb5565b600080600080600080600060e0888a031215611eab578283fd5b873567ffffffffffffffff80821115611ec2578485fd5b611ece8b838c01611cb5565b985060208a0135975060408a0135915080821115611eea578485fd5b611ef68b838c01611cb5565b965060608a0135915080821115611f0b578485fd5b50611f188a828b01611cb5565b94505060808801359250611f2e60a08901611c8e565b9150611f3c60c08901611ca5565b905092959891949750929550565b600060208284031215611f5b578081fd5b5035919050565b60008060408385031215611f74578182fd5b50508035926020909101359150565b60008151808452611f9b8160208601602086016122df565b601f01601f19169290920160200192915050565b60008351611fc18184602088016122df565b835190830190611fd58183602088016122df565b01949350505050565b683d913730b6b2911d1160b91b81526929ab239027232a10191960b11b60098201527f222c20226465736372697074696f6e223a22416e204e4654206261736564206f60138201527f6e2053564721222c202261747472696275746573223a22222c2022696d616765603382015262111d1160e91b6053820152815160009061206e8160568501602087016122df565b61227d60f01b6056939091019283015250605801919050565b60007519185d184e985c1c1b1a58d85d1a5bdb8bda9cdbdb8b60521b825282516120b88160168501602087016122df565b9190910160160192915050565b6001600160a01b03858116825284166020820152604081018390526080606082018190526000906120f890830184611f83565b9695505050505050565b6000602082526117da6020830184611f83565b6000604082526121286040830185611f83565b90508260208301529392505050565b60208082526032908201527f4552433732313a207472616e7366657220746f206e6f6e20455243373231526560408201527131b2b4bb32b91034b6b83632b6b2b73a32b960711b606082015260800190565b6020808252602e908201527f4552433732313a2063616c6c6572206973206e6f7420746f6b656e206f776e6560408201526d1c881b9bdc88185c1c1c9bdd995960921b606082015260800190565b600086825260a060208301526121f060a0830187611f83565b82810360408401526122028187611f83565b606084019590955250506001600160a01b03919091166080909101529392505050565b898152602081018990526001600160a01b03888116604083015287151560608301528616608082015260a0810185905261012060c0820181905260009061226e83820187611f83565b905082810360e08401526122828186611f83565b9150508215156101008301529a9950505050505050505050565b600082198211156122af576122af612375565b500190565b6000826122c3576122c361238b565b500490565b6000828210156122da576122da612375565b500390565b60005b838110156122fa5781810151838201526020016122e2565b838111156111b55750506000910152565b600181811c9082168061231f57607f821691505b6020821081141561234057634e487b7160e01b600052602260045260246000fd5b50919050565b600060001982141561235a5761235a612375565b5060010190565b6000826123705761237061238b565b500690565b634e487b7160e01b600052601160045260246000fd5b634e487b7160e01b600052601260045260246000fd5b634e487b7160e01b600052604160045260246000fd5b6001600160e01b03198116811461132c57600080fdfea26469706673582212207d4774c5c5f758e33be980e177b22364efa5e3a263d139154311a9d5620ead1964736f6c63430008030033",
  "linkReferences": {},
  "deployedLinkReferences": {}
}