{
  "_format": "hh-sol-artifact-1",
  "contractName": "dMarket",
  "sourceName": "contracts/dMarket.sol",
  "abi": [
    {
      "inputs": [],
      "stateMutability": "nonpayable",
      "type": "constructor"
    },
    {
      "anonymous": false,
      "inputs": [
        {
          "indexed": true,
          "internalType": "address",
          "name": "owner",
          "type": "address"
        },
        {
          "indexed": true,
          "internalType": "address",
          "name": "approved",
          "type": "address"
        },
        {
          "indexed": true,
          "internalType": "uint256",
          "name": "tokenId",
          "type": "uint256"
        }
      ],
      "name": "Approval",
      "type": "event"
    },
    {
      "anonymous": false,
      "inputs": [
        {
          "indexed": true,
          "internalType": "address",
          "name": "owner",
          "type": "address"
        },
        {
          "indexed": true,
          "internalType": "address",
          "name": "operator",
          "type": "address"
        },
        {
          "indexed": false,
          "internalType": "bool",
          "name": "approved",
          "type": "bool"
        }
      ],
      "name": "ApprovalForAll",
      "type": "event"
    },
    {
      "anonymous": false,
      "inputs": [
        {
          "indexed": true,
          "internalType": "address",
          "name": "_buyer",
          "type": "address"
        },
        {
          "indexed": true,
          "internalType": "uint256",
          "name": "_tokenId",
          "type": "uint256"
        }
      ],
      "name": "BuyNFT",
      "type": "event"
    },
    {
      "anonymous": false,
      "inputs": [
        {
          "indexed": true,
          "internalType": "uint256",
          "name": "_tokenId",
          "type": "uint256"
        },
        {
          "indexed": false,
          "internalType": "string",
          "name": "_tokenURI",
          "type": "string"
        },
        {
          "indexed": true,
          "internalType": "address",
          "name": "_owner",
          "type": "address"
        },
        {
          "indexed": false,
          "internalType": "uint256",
          "name": "transfers",
          "type": "uint256"
        },
        {
          "indexed": false,
          "internalType": "address",
          "name": "issuer",
          "type": "address"
        },
        {
          "indexed": false,
          "internalType": "uint256",
          "name": "order_serial_number",
          "type": "uint256"
        },
        {
          "indexed": false,
          "internalType": "string",
          "name": "issue_time",
          "type": "string"
        },
        {
          "indexed": false,
          "internalType": "string",
          "name": "duration",
          "type": "string"
        },
        {
          "indexed": false,
          "internalType": "string",
          "name": "description",
          "type": "string"
        },
        {
          "indexed": false,
          "internalType": "string",
          "name": "name",
          "type": "string"
        },
        {
          "indexed": false,
          "internalType": "string",
          "name": "rarity",
          "type": "string"
        }
      ],
      "name": "CreateNFT",
      "type": "event"
    },
    {
      "anonymous": false,
      "inputs": [
        {
          "indexed": true,
          "internalType": "address",
          "name": "from",
          "type": "address"
        },
        {
          "indexed": true,
          "internalType": "address",
          "name": "to",
          "type": "address"
        },
        {
          "indexed": true,
          "internalType": "uint256",
          "name": "tokenId",
          "type": "uint256"
        }
      ],
      "name": "Transfer",
      "type": "event"
    },
    {
      "anonymous": false,
      "inputs": [
        {
          "indexed": true,
          "internalType": "address",
          "name": "_from",
          "type": "address"
        },
        {
          "indexed": true,
          "internalType": "address",
          "name": "_to",
          "type": "address"
        },
        {
          "indexed": true,
          "internalType": "uint256",
          "name": "_tokenId",
          "type": "uint256"
        }
      ],
      "name": "TransferNFT",
      "type": "event"
    },
    {
      "inputs": [
        {
          "internalType": "address",
          "name": "to",
          "type": "address"
        },
        {
          "internalType": "uint256",
          "name": "tokenId",
          "type": "uint256"
        }
      ],
      "name": "approve",
      "outputs": [],
      "stateMutability": "nonpayable",
      "type": "function"
    },
    {
      "inputs": [
        {
          "internalType": "address",
          "name": "owner",
          "type": "address"
        }
      ],
      "name": "balanceOf",
      "outputs": [
        {
          "internalType": "uint256",
          "name": "",
          "type": "uint256"
        }
      ],
      "stateMutability": "view",
      "type": "function"
    },
    {
      "inputs": [
        {
          "internalType": "uint256",
          "name": "_tokenId",
          "type": "uint256"
        }
      ],
      "name": "buyNFT",
      "outputs": [],
      "stateMutability": "payable",
      "type": "function"
    },
    {
      "inputs": [
        {
          "internalType": "string",
          "name": "_tokenURI",
          "type": "string"
        },
        {
          "internalType": "uint256",
          "name": "_transfers",
          "type": "uint256"
        },
        {
          "internalType": "string",
          "name": "_issueTime",
          "type": "string"
        },
        {
          "internalType": "string",
          "name": "_duration",
          "type": "string"
        },
        {
          "internalType": "uint256",
          "name": "_serialNo",
          "type": "uint256"
        },
        {
          "internalType": "address",
          "name": "_issuer",
          "type": "address"
        },
        {
          "internalType": "bool",
          "name": "isSoulbound",
          "type": "bool"
        },
        {
          "internalType": "string",
          "name": "name",
          "type": "string"
        },
        {
          "internalType": "string",
          "name": "description",
          "type": "string"
        },
        {
          "internalType": "string",
          "name": "_rarity",
          "type": "string"
        }
      ],
      "name": "createNFT",
      "outputs": [],
      "stateMutability": "payable",
      "type": "function"
    },
    {
      "inputs": [
        {
          "internalType": "string",
          "name": "_tokenURI",
          "type": "string"
        },
        {
          "internalType": "string",
          "name": "description",
          "type": "string"
        },
        {
          "internalType": "string",
          "name": "name",
          "type": "string"
        },
        {
          "internalType": "uint256",
          "name": "_serialNo",
          "type": "uint256"
        },
        {
          "internalType": "string",
          "name": "_rarity",
          "type": "string"
        }
      ],
      "name": "formatTokenURI",
      "outputs": [
        {
          "internalType": "string",
          "name": "",
          "type": "string"
        }
      ],
      "stateMutability": "pure",
      "type": "function"
    },
    {
      "inputs": [
        {
          "internalType": "uint256",
          "name": "tokenId",
          "type": "uint256"
        }
      ],
      "name": "getApproved",
      "outputs": [
        {
          "internalType": "address",
          "name": "",
          "type": "address"
        }
      ],
      "stateMutability": "view",
      "type": "function"
    },
    {
      "inputs": [],
      "name": "getNFTCount",
      "outputs": [
        {
          "internalType": "uint256",
          "name": "",
          "type": "uint256"
        }
      ],
      "stateMutability": "view",
      "type": "function"
    },
    {
      "inputs": [
        {
          "internalType": "uint256",
          "name": "_tokenId",
          "type": "uint256"
        }
      ],
      "name": "getNFTMetaData",
      "outputs": [
        {
          "internalType": "uint256",
          "name": "_price",
          "type": "uint256"
        },
        {
          "internalType": "address",
          "name": "_owner",
          "type": "address"
        },
        {
          "internalType": "bool",
          "name": "forSale",
          "type": "bool"
        },
        {
          "internalType": "bool",
          "name": "soulBound",
          "type": "bool"
        }
      ],
      "stateMutability": "view",
      "type": "function"
    },
    {
      "inputs": [
        {
          "internalType": "address",
          "name": "owner",
          "type": "address"
        },
        {
          "internalType": "address",
          "name": "operator",
          "type": "address"
        }
      ],
      "name": "isApprovedForAll",
      "outputs": [
        {
          "internalType": "bool",
          "name": "",
          "type": "bool"
        }
      ],
      "stateMutability": "view",
      "type": "function"
    },
    {
      "inputs": [
        {
          "internalType": "uint256",
          "name": "_tokenId",
          "type": "uint256"
        }
      ],
      "name": "markNFTForSale",
      "outputs": [],
      "stateMutability": "nonpayable",
      "type": "function"
    },
    {
      "inputs": [],
      "name": "name",
      "outputs": [
        {
          "internalType": "string",
          "name": "",
          "type": "string"
        }
      ],
      "stateMutability": "view",
      "type": "function"
    },
    {
      "inputs": [
        {
          "internalType": "uint256",
          "name": "",
          "type": "uint256"
        }
      ],
      "name": "nfts",
      "outputs": [
        {
          "internalType": "uint256",
          "name": "tokenId",
          "type": "uint256"
        },
        {
          "internalType": "address payable",
          "name": "owner",
          "type": "address"
        },
        {
          "internalType": "bool",
          "name": "isForSale",
          "type": "bool"
        },
        {
          "internalType": "bool",
          "name": "isSoulbound",
          "type": "bool"
        }
      ],
      "stateMutability": "view",
      "type": "function"
    },
    {
      "inputs": [],
      "name": "owner",
      "outputs": [
        {
          "internalType": "address payable",
          "name": "",
          "type": "address"
        }
      ],
      "stateMutability": "view",
      "type": "function"
    },
    {
      "inputs": [
        {
          "internalType": "uint256",
          "name": "tokenId",
          "type": "uint256"
        }
      ],
      "name": "ownerOf",
      "outputs": [
        {
          "internalType": "address",
          "name": "",
          "type": "address"
        }
      ],
      "stateMutability": "view",
      "type": "function"
    },
    {
      "inputs": [
        {
          "internalType": "address",
          "name": "from",
          "type": "address"
        },
        {
          "internalType": "address",
          "name": "to",
          "type": "address"
        },
        {
          "internalType": "uint256",
          "name": "tokenId",
          "type": "uint256"
        }
      ],
      "name": "safeTransferFrom",
      "outputs": [],
      "stateMutability": "nonpayable",
      "type": "function"
    },
    {
      "inputs": [
        {
          "internalType": "address",
          "name": "from",
          "type": "address"
        },
        {
          "internalType": "address",
          "name": "to",
          "type": "address"
        },
        {
          "internalType": "uint256",
          "name": "tokenId",
          "type": "uint256"
        },
        {
          "internalType": "bytes",
          "name": "data",
          "type": "bytes"
        }
      ],
      "name": "safeTransferFrom",
      "outputs": [],
      "stateMutability": "nonpayable",
      "type": "function"
    },
    {
      "inputs": [
        {
          "internalType": "address",
          "name": "operator",
          "type": "address"
        },
        {
          "internalType": "bool",
          "name": "approved",
          "type": "bool"
        }
      ],
      "name": "setApprovalForAll",
      "outputs": [],
      "stateMutability": "nonpayable",
      "type": "function"
    },
    {
      "inputs": [
        {
          "internalType": "bytes4",
          "name": "interfaceId",
          "type": "bytes4"
        }
      ],
      "name": "supportsInterface",
      "outputs": [
        {
          "internalType": "bool",
          "name": "",
          "type": "bool"
        }
      ],
      "stateMutability": "view",
      "type": "function"
    },
    {
      "inputs": [],
      "name": "symbol",
      "outputs": [
        {
          "internalType": "string",
          "name": "",
          "type": "string"
        }
      ],
      "stateMutability": "view",
      "type": "function"
    },
    {
      "inputs": [
        {
          "internalType": "uint256",
          "name": "tokenId",
          "type": "uint256"
        }
      ],
      "name": "tokenURI",
      "outputs": [
        {
          "internalType": "string",
          "name": "",
          "type": "string"
        }
      ],
      "stateMutability": "view",
      "type": "function"
    },
    {
      "inputs": [
        {
          "internalType": "address",
          "name": "from",
          "type": "address"
        },
        {
          "internalType": "address",
          "name": "to",
          "type": "address"
        },
        {
          "internalType": "uint256",
          "name": "tokenId",
          "type": "uint256"
        }
      ],
      "name": "transferFrom",
      "outputs": [],
      "stateMutability": "nonpayable",
      "type": "function"
    },
    {
      "inputs": [
        {
          "internalType": "address",
          "name": "_to",
          "type": "address"
        },
        {
          "internalType": "uint256",
          "name": "_tokenId",
          "type": "uint256"
        }
      ],
      "name": "transferNFT",
      "outputs": [],
      "stateMutability": "nonpayable",
      "type": "function"
    }
  ],
  "bytecode": "0x6080604052600160075560006009553480156200001b57600080fd5b5060408051808201825260078152661913585c9ad95d60ca1b602080830191825283518085019094526004845263111352d560e21b908401528151919291620000679160009162000098565b5080516200007d90600190602084019062000098565b5050600880546001600160a01b03191633179055506200017b565b828054620000a6906200013e565b90600052602060002090601f016020900481019282620000ca576000855562000115565b82601f10620000e557805160ff191683800117855562000115565b8280016001018555821562000115579182015b8281111562000115578251825591602001919060010190620000f8565b506200012392915062000127565b5090565b5b8082111562000123576000815560010162000128565b600181811c908216806200015357607f821691505b602082108114156200017557634e487b7160e01b600052602260045260246000fd5b50919050565b6122bc806200018b6000396000f3fe6080604052600436106101355760003560e01c806370a08231116100ab578063a22cb4651161006f578063a22cb465146103f0578063b88d4fde14610410578063c87b56dd14610430578063d17ac0e514610450578063d5ec7abe14610470578063e985e9c51461048357610135565b806370a082311461032457806388ef3f73146103445780638da5cb5b1461039b57806394ab67fe146103bb57806395d89b41146103db57610135565b8063265aa621116100fd578063265aa6211461020b57806342842e0e1461028e57806351ed8288146102ae57806352726e5d146102c157806354279637146102e15780636352211e1461030457610135565b806301ffc9a71461013a57806306fdde031461016f578063081812fc14610191578063095ea7b3146101c957806323b872dd146101eb575b600080fd5b34801561014657600080fd5b5061015a610155366004611b9a565b6104cc565b60405190151581526020015b60405180910390f35b34801561017b57600080fd5b50610184610520565b6040516101669190611ffc565b34801561019d57600080fd5b506101b16101ac366004611daa565b6105b2565b6040516001600160a01b039091168152602001610166565b3480156101d557600080fd5b506101e96101e4366004611b71565b6105d9565b005b3480156101f757600080fd5b506101e9610206366004611a94565b6106f4565b34801561021757600080fd5b5061025e610226366004611daa565b600a60205260009081526040902080546001909101546001600160a01b0381169060ff600160a01b8204811691600160a81b90041684565b604080519485526001600160a01b0390931660208501529015159183019190915215156060820152608001610166565b34801561029a57600080fd5b506101e96102a9366004611a94565b610725565b6101e96102bc366004611daa565b610740565b3480156102cd57600080fd5b506101e96102dc366004611daa565b610928565b3480156102ed57600080fd5b506102f6610a1d565b604051908152602001610166565b34801561031057600080fd5b506101b161031f366004611daa565b610a33565b34801561033057600080fd5b506102f661033f366004611a48565b610a93565b34801561035057600080fd5b5061025e61035f366004611daa565b6000818152600a6020526040902080546001909101546001600160a01b0381169060ff600160a01b8204811691600160a81b9004169193509193565b3480156103a757600080fd5b506008546101b1906001600160a01b031681565b3480156103c757600080fd5b506101e96103d6366004611b71565b610b19565b3480156103e757600080fd5b50610184610c2a565b3480156103fc57600080fd5b506101e961040b366004611b48565b610c39565b34801561041c57600080fd5b506101e961042b366004611acf565b610c48565b34801561043c57600080fd5b5061018461044b366004611daa565b610c80565b34801561045c57600080fd5b5061018461046b366004611bd2565b610d92565b6101e961047e366004611c84565b610dec565b34801561048f57600080fd5b5061015a61049e366004611a62565b6001600160a01b03918216600090815260056020908152604080832093909416825291909152205460ff1690565b60006001600160e01b031982166380ac58cd60e01b14806104fd57506001600160e01b03198216635b5e139f60e01b145b8061051857506301ffc9a760e01b6001600160e01b03198316145b90505b919050565b60606000805461052f906121c4565b80601f016020809104026020016040519081016040528092919081815260200182805461055b906121c4565b80156105a85780601f1061057d576101008083540402835291602001916105a8565b820191906000526020600020905b81548152906001019060200180831161058b57829003601f168201915b5050505050905090565b60006105bd82610fa0565b506000908152600460205260409020546001600160a01b031690565b60006105e482610a33565b9050806001600160a01b0316836001600160a01b031614156106575760405162461bcd60e51b815260206004820152602160248201527f4552433732313a20617070726f76616c20746f2063757272656e74206f776e656044820152603960f91b60648201526084015b60405180910390fd5b336001600160a01b03821614806106735750610673813361049e565b6106e55760405162461bcd60e51b815260206004820152603e60248201527f4552433732313a20617070726f76652063616c6c6572206973206e6f7420746f60448201527f6b656e206f776e6572206e6f7220617070726f76656420666f7220616c6c0000606482015260840161064e565b6106ef8383611002565b505050565b6106fe3382611070565b61071a5760405162461bcd60e51b815260040161064e90612107565b6106ef8383836110ee565b6106ef83838360405180602001604052806000815250610c48565b6000818152600260205260409020546001600160a01b03166107995760405162461bcd60e51b815260206004820152601260248201527113919508191bd95cc81b9bdd08195e1a5cdd60721b604482015260640161064e565b6000818152600a6020526040902060010154600160a01b900460ff166107f75760405162461bcd60e51b81526020600482015260136024820152724e4654206973206e6f7420666f722073616c6560681b604482015260640161064e565b6000818152600a60205260409020600101546001600160a01b03163314156108615760405162461bcd60e51b815260206004820152601e60248201527f596f752063616e206e6f742062757920796f7572206f776e204e46542e210000604482015260640161064e565b6000818152600a6020526040902060010154610887906001600160a01b031633836110ee565b6000818152600a60205260408082206001015490516001600160a01b03909116913480156108fc02929091818181858888f193505050501580156108cf573d6000803e3d6000fd5b506000818152600a602052604080822060010180546001600160a81b0319163360ff60a01b19811691909117909155905183927fccc0714a22497a22dd0f50922822d7002a7f07860d62eaf2fd93608e140ce13e91a350565b6000818152600260205260409020546001600160a01b03166109815760405162461bcd60e51b815260206004820152601260248201527113919508191bd95cc81b9bdd08195e1a5cdd60721b604482015260640161064e565b6000818152600a60205260409020600101546001600160a01b031633146109f95760405162461bcd60e51b815260206004820152602660248201527f596f752063616e206e6f74206d61726b206f7468657273204e465420666f722060448201526573616c652e2160d01b606482015260840161064e565b6000908152600a60205260409020600101805460ff60a01b1916600160a01b179055565b60006001600754610a2e9190612181565b905090565b6000818152600260205260408120546001600160a01b0316806105185760405162461bcd60e51b8152602060048201526018602482015277115490cdcc8c4e881a5b9d985b1a59081d1bdad95b88125160421b604482015260640161064e565b60006001600160a01b038216610afd5760405162461bcd60e51b815260206004820152602960248201527f4552433732313a2061646472657373207a65726f206973206e6f7420612076616044820152683634b21037bbb732b960b91b606482015260840161064e565b506001600160a01b031660009081526003602052604090205490565b6000818152600a60205260409020600101546001600160a01b03163314610ba85760405162461bcd60e51b815260206004820152603d60248201527f4e465420646f6573206e6f7420657869737473206f7220796f7520646f6e742060448201527f68617665207065726d697373696f6e20746f207472616e736665722e21000000606482015260840161064e565b6000818152600a6020526040902060010154610bce906001600160a01b031683836110ee565b6000818152600a602052604080822060010180546001600160a01b0319166001600160a01b0386169081179091559051839233917fa64cdec004d2859ac7547f4ed3252f53d0fa0b8dcbcc93a47894eee072714b629190a45050565b60606001805461052f906121c4565b610c44338383611295565b5050565b610c523383611070565b610c6e5760405162461bcd60e51b815260040161064e90612107565b610c7a84848484611364565b50505050565b6060610c8b82610fa0565b60008281526006602052604081208054610ca4906121c4565b80601f0160208091040260200160405190810160405280929190818152602001828054610cd0906121c4565b8015610d1d5780601f10610cf257610100808354040283529160200191610d1d565b820191906000526020600020905b815481529060010190602001808311610d0057829003601f168201915b505050505090506000610d3b60408051602081019091526000815290565b9050805160001415610d4f5750905061051b565b815115610d81578082604051602001610d69929190611e0a565b6040516020818303038152906040529250505061051b565b610d8a84611397565b949350505050565b60608385610d9f8561140b565b8489604051602001610db5959493929190611e39565b60408051601f1981840301815290829052610dd291602001611f81565b604051602081830303815290604052905095945050505050565b6009543414610e3d5760405162461bcd60e51b815260206004820152601e60248201527f596f75206d7573742070617920746865206c697374696e672070726963650000604482015260640161064e565b604080516080810182526007805480835233602080850182815260008688018181528c151560608901908152958252600a909352969096209451855594516001949094018054955192511515600160a81b0260ff60a81b19931515600160a01b026001600160a81b03199097166001600160a01b0396909616959095179590951791909116929092179092559054610ed59190611526565b610eed600754610ee88c85878b87610d92565b611540565b6008546040516001600160a01b03909116903480156108fc02916000818181858888f19350505050158015610f26573d6000803e3d6000fd5b5060078054906000610f37836121ff565b90915550506007543390610f4d90600190612181565b7fe0daffc74ee533aed3a9c8bf2af1e127e2dae024fbb9629e9878e346e3043e658c8c898b8e8e8a8c8b604051610f8c9998979695949392919061200f565b60405180910390a350505050505050505050565b6000818152600260205260409020546001600160a01b0316610fff5760405162461bcd60e51b8152602060048201526018602482015277115490cdcc8c4e881a5b9d985b1a59081d1bdad95b88125160421b604482015260640161064e565b50565b600081815260046020526040902080546001600160a01b0319166001600160a01b038416908117909155819061103782610a33565b6001600160a01b03167f8c5be1e5ebec7d5bd14f71427d1e84f3dd0314c0f7b2291e5b200ac8c7c3b92560405160405180910390a45050565b60008061107c83610a33565b9050806001600160a01b0316846001600160a01b031614806110c357506001600160a01b0380821660009081526005602090815260408083209388168352929052205460ff165b80610d8a5750836001600160a01b03166110dc846105b2565b6001600160a01b031614949350505050565b826001600160a01b031661110182610a33565b6001600160a01b0316146111655760405162461bcd60e51b815260206004820152602560248201527f4552433732313a207472616e736665722066726f6d20696e636f72726563742060448201526437bbb732b960d91b606482015260840161064e565b6001600160a01b0382166111c75760405162461bcd60e51b8152602060048201526024808201527f4552433732313a207472616e7366657220746f20746865207a65726f206164646044820152637265737360e01b606482015260840161064e565b6111d28383836115da565b6111dd600082611002565b6001600160a01b0383166000908152600360205260408120805460019290611206908490612181565b90915550506001600160a01b0382166000908152600360205260408120805460019290611234908490612155565b909155505060008181526002602052604080822080546001600160a01b0319166001600160a01b0386811691821790925591518493918716917fddf252ad1be2c89b69c2b068fc378daa952ba7f163c4a11628f55a4df523b3ef91a46106ef565b816001600160a01b0316836001600160a01b031614156112f75760405162461bcd60e51b815260206004820152601960248201527f4552433732313a20617070726f766520746f2063616c6c657200000000000000604482015260640161064e565b6001600160a01b03838116600081815260056020908152604080832094871680845294825291829020805460ff191686151590811790915591519182527f17307eab39ab6107e8899845ad3d59bd9653f200f220920489ca2b5937696c31910160405180910390a3505050565b61136f8484846110ee565b61137b84848484611664565b610c7a5760405162461bcd60e51b815260040161064e906120b5565b60606113a282610fa0565b60006113b960408051602081019091526000815290565b905060008151116113d95760405180602001604052806000815250611404565b806113e38461140b565b6040516020016113f4929190611e0a565b6040516020818303038152906040525b9392505050565b60608161143057506040805180820190915260018152600360fc1b602082015261051b565b8160005b811561145a5780611444816121ff565b91506114539050600a8361216d565b9150611434565b60008167ffffffffffffffff81111561148357634e487b7160e01b600052604160045260246000fd5b6040519080825280601f01601f1916602001820160405280156114ad576020820181803683370190505b5090505b8415610d8a576114c2600183612181565b91506114cf600a8661221a565b6114da906030612155565b60f81b8183815181106114fd57634e487b7160e01b600052603260045260246000fd5b60200101906001600160f81b031916908160001a90535061151f600a8661216d565b94506114b1565b610c44828260405180602001604052806000815250611771565b6000828152600260205260409020546001600160a01b03166115bb5760405162461bcd60e51b815260206004820152602e60248201527f45524337323155524953746f726167653a2055524920736574206f66206e6f6e60448201526d32bc34b9ba32b73a103a37b5b2b760911b606482015260840161064e565b600082815260066020908152604090912082516106ef928401906118f3565b6000818152600a6020526040902060010154600160a81b900460ff16156106ef576001600160a01b038316158061161857506001600160a01b038216155b6106ef5760405162461bcd60e51b815260206004820152601760248201527f49742063616e6e6f74206265207472616e736665726564000000000000000000604482015260640161064e565b60006001600160a01b0384163b1561176657604051630a85bd0160e11b81526001600160a01b0385169063150b7a02906116a8903390899088908890600401611fbf565b602060405180830381600087803b1580156116c257600080fd5b505af19250505080156116f2575060408051601f3d908101601f191682019092526116ef91810190611bb6565b60015b61174c573d808015611720576040519150601f19603f3d011682016040523d82523d6000602084013e611725565b606091505b5080516117445760405162461bcd60e51b815260040161064e906120b5565b805181602001fd5b6001600160e01b031916630a85bd0160e11b149050610d8a565b506001949350505050565b61177b83836117a4565b6117886000848484611664565b6106ef5760405162461bcd60e51b815260040161064e906120b5565b6001600160a01b0382166117fa5760405162461bcd60e51b815260206004820181905260248201527f4552433732313a206d696e7420746f20746865207a65726f2061646472657373604482015260640161064e565b6000818152600260205260409020546001600160a01b03161561185f5760405162461bcd60e51b815260206004820152601c60248201527f4552433732313a20746f6b656e20616c7265616479206d696e74656400000000604482015260640161064e565b61186b600083836115da565b6001600160a01b0382166000908152600360205260408120805460019290611894908490612155565b909155505060008181526002602052604080822080546001600160a01b0319166001600160a01b03861690811790915590518392907fddf252ad1be2c89b69c2b068fc378daa952ba7f163c4a11628f55a4df523b3ef908290a4610c44565b8280546118ff906121c4565b90600052602060002090601f0160209004810192826119215760008555611967565b82601f1061193a57805160ff1916838001178555611967565b82800160010185558215611967579182015b8281111561196757825182559160200191906001019061194c565b50611973929150611977565b5090565b5b808211156119735760008155600101611978565b600067ffffffffffffffff808411156119a7576119a761225a565b604051601f8501601f19908116603f011681019082821181831017156119cf576119cf61225a565b816040528093508581528686860111156119e857600080fd5b858560208301376000602087830101525050509392505050565b80356001600160a01b038116811461051b57600080fd5b8035801515811461051b57600080fd5b600082601f830112611a39578081fd5b6114048383356020850161198c565b600060208284031215611a59578081fd5b61140482611a02565b60008060408385031215611a74578081fd5b611a7d83611a02565b9150611a8b60208401611a02565b90509250929050565b600080600060608486031215611aa8578081fd5b611ab184611a02565b9250611abf60208501611a02565b9150604084013590509250925092565b60008060008060808587031215611ae4578081fd5b611aed85611a02565b9350611afb60208601611a02565b925060408501359150606085013567ffffffffffffffff811115611b1d578182fd5b8501601f81018713611b2d578182fd5b611b3c8782356020840161198c565b91505092959194509250565b60008060408385031215611b5a578182fd5b611b6383611a02565b9150611a8b60208401611a19565b60008060408385031215611b83578182fd5b611b8c83611a02565b946020939093013593505050565b600060208284031215611bab578081fd5b813561140481612270565b600060208284031215611bc7578081fd5b815161140481612270565b600080600080600060a08688031215611be9578081fd5b853567ffffffffffffffff80821115611c00578283fd5b611c0c89838a01611a29565b96506020880135915080821115611c21578283fd5b611c2d89838a01611a29565b95506040880135915080821115611c42578283fd5b611c4e89838a01611a29565b9450606088013593506080880135915080821115611c6a578283fd5b50611c7788828901611a29565b9150509295509295909350565b6000806000806000806000806000806101408b8d031215611ca3578485fd5b8a3567ffffffffffffffff80821115611cba578687fd5b611cc68e838f01611a29565b9b5060208d01359a5060408d0135915080821115611ce2578687fd5b611cee8e838f01611a29565b995060608d0135915080821115611d03578687fd5b611d0f8e838f01611a29565b985060808d01359750611d2460a08e01611a02565b9650611d3260c08e01611a19565b955060e08d0135915080821115611d47578485fd5b611d538e838f01611a29565b94506101008d0135915080821115611d69578384fd5b611d758e838f01611a29565b93506101208d0135915080821115611d8b578283fd5b50611d988d828e01611a29565b9150509295989b9194979a5092959850565b600060208284031215611dbb578081fd5b5035919050565b60008151808452611dda816020860160208601612198565b601f01601f19169290920160200192915050565b60008151611e00818560208601612198565b9290920192915050565b60008351611e1c818460208801612198565b835190830190611e30818360208801612198565b01949350505050565b683d913730b6b2911d1160b91b81528551600090611e5e816009850160208b01612198565b71111610113232b9b1b934b83a34b7b7111d1160711b6009918401918201528651611e9081601b840160208b01612198565b7f222c202261747472696275746573223a5b7b2274726169745f74797065223a20601b9290910191820152741139b2b934b0b62fb7379116113b30b63ab2911d1160591b603b8201528551611eec816050840160208a01612198565b7f227d2c7b2274726169745f74797065223a2022526172697479222c2276616c75605092909101918201526332911d1160e11b60708201528451611f37816074840160208901612198565b611f74611f66611f606074848601016d113eae96101134b6b0b3b2911d1160911b8152600e0190565b87611dee565b61227d60f01b815260020190565b9998505050505050505050565b60007519185d184e985c1c1b1a58d85d1a5bdb8bda9cdbdb8b60521b82528251611fb2816016850160208701612198565b9190910160160192915050565b6001600160a01b0385811682528416602082015260408101839052608060608201819052600090611ff290830184611dc2565b9695505050505050565b6000602082526114046020830184611dc2565b60006101208083526120238184018d611dc2565b602084018c90526001600160a01b038b166040850152606084018a9052838103608085015290506120548189611dc2565b905082810360a08401526120688188611dc2565b905082810360c084015261207c8187611dc2565b905082810360e08401526120908186611dc2565b90508281036101008401526120a58185611dc2565b9c9b505050505050505050505050565b60208082526032908201527f4552433732313a207472616e7366657220746f206e6f6e20455243373231526560408201527131b2b4bb32b91034b6b83632b6b2b73a32b960711b606082015260800190565b6020808252602e908201527f4552433732313a2063616c6c6572206973206e6f7420746f6b656e206f776e6560408201526d1c881b9bdc88185c1c1c9bdd995960921b606082015260800190565b600082198211156121685761216861222e565b500190565b60008261217c5761217c612244565b500490565b6000828210156121935761219361222e565b500390565b60005b838110156121b357818101518382015260200161219b565b83811115610c7a5750506000910152565b600181811c908216806121d857607f821691505b602082108114156121f957634e487b7160e01b600052602260045260246000fd5b50919050565b60006000198214156122135761221361222e565b5060010190565b60008261222957612229612244565b500690565b634e487b7160e01b600052601160045260246000fd5b634e487b7160e01b600052601260045260246000fd5b634e487b7160e01b600052604160045260246000fd5b6001600160e01b031981168114610fff57600080fdfea264697066735822122057ab27beefabf869f4fb8c725702080520a3cb4e229a3280ecfdd887abdb1aeb64736f6c63430008030033",
  "linkReferences": {},
  "deployedLinkReferences": {}
}