{
  "_format": "hh-sol-artifact-1",
  "contractName": "dMarket",
  "sourceName": "contracts/dMarket.sol",
  "abi": [
    {
      "inputs": [],
      "stateMutability": "nonpayable",
      "type": "constructor"
    },
    {
      "anonymous": false,
      "inputs": [
        {
          "indexed": true,
          "internalType": "address",
          "name": "owner",
          "type": "address"
        },
        {
          "indexed": true,
          "internalType": "address",
          "name": "approved",
          "type": "address"
        },
        {
          "indexed": true,
          "internalType": "uint256",
          "name": "tokenId",
          "type": "uint256"
        }
      ],
      "name": "Approval",
      "type": "event"
    },
    {
      "anonymous": false,
      "inputs": [
        {
          "indexed": true,
          "internalType": "address",
          "name": "owner",
          "type": "address"
        },
        {
          "indexed": true,
          "internalType": "address",
          "name": "operator",
          "type": "address"
        },
        {
          "indexed": false,
          "internalType": "bool",
          "name": "approved",
          "type": "bool"
        }
      ],
      "name": "ApprovalForAll",
      "type": "event"
    },
    {
      "anonymous": false,
      "inputs": [
        {
          "indexed": true,
          "internalType": "address",
          "name": "_buyer",
          "type": "address"
        },
        {
          "indexed": true,
          "internalType": "uint256",
          "name": "_tokenId",
          "type": "uint256"
        },
        {
          "indexed": false,
          "internalType": "uint256",
          "name": "_price",
          "type": "uint256"
        }
      ],
      "name": "BuyNFT",
      "type": "event"
    },
    {
      "anonymous": false,
      "inputs": [
        {
          "indexed": true,
          "internalType": "uint256",
          "name": "_tokenId",
          "type": "uint256"
        },
        {
          "indexed": false,
          "internalType": "string",
          "name": "_tokenURI",
          "type": "string"
        },
        {
          "indexed": true,
          "internalType": "address",
          "name": "_owner",
          "type": "address"
        },
        {
          "indexed": false,
          "internalType": "uint256",
          "name": "_price",
          "type": "uint256"
        }
      ],
      "name": "CreateNFT",
      "type": "event"
    },
    {
      "anonymous": false,
      "inputs": [
        {
          "indexed": true,
          "internalType": "address",
          "name": "from",
          "type": "address"
        },
        {
          "indexed": true,
          "internalType": "address",
          "name": "to",
          "type": "address"
        },
        {
          "indexed": true,
          "internalType": "uint256",
          "name": "tokenId",
          "type": "uint256"
        }
      ],
      "name": "Transfer",
      "type": "event"
    },
    {
      "anonymous": false,
      "inputs": [
        {
          "indexed": true,
          "internalType": "address",
          "name": "_from",
          "type": "address"
        },
        {
          "indexed": true,
          "internalType": "address",
          "name": "_to",
          "type": "address"
        },
        {
          "indexed": true,
          "internalType": "uint256",
          "name": "_tokenId",
          "type": "uint256"
        }
      ],
      "name": "TransferNFT",
      "type": "event"
    },
    {
      "inputs": [
        {
          "internalType": "address",
          "name": "to",
          "type": "address"
        },
        {
          "internalType": "uint256",
          "name": "tokenId",
          "type": "uint256"
        }
      ],
      "name": "approve",
      "outputs": [],
      "stateMutability": "nonpayable",
      "type": "function"
    },
    {
      "inputs": [
        {
          "internalType": "address",
          "name": "owner",
          "type": "address"
        }
      ],
      "name": "balanceOf",
      "outputs": [
        {
          "internalType": "uint256",
          "name": "",
          "type": "uint256"
        }
      ],
      "stateMutability": "view",
      "type": "function"
    },
    {
      "inputs": [
        {
          "internalType": "uint256",
          "name": "_tokenId",
          "type": "uint256"
        }
      ],
      "name": "buyNFT",
      "outputs": [],
      "stateMutability": "payable",
      "type": "function"
    },
    {
      "inputs": [
        {
          "internalType": "string",
          "name": "_tokenURI",
          "type": "string"
        },
        {
          "internalType": "uint256",
          "name": "_transfers",
          "type": "uint256"
        },
        {
          "internalType": "string",
          "name": "_issueTime",
          "type": "string"
        },
        {
          "internalType": "string",
          "name": "_duration",
          "type": "string"
        },
        {
          "internalType": "uint256",
          "name": "_serialNo",
          "type": "uint256"
        },
        {
          "internalType": "address",
          "name": "_issuer",
          "type": "address"
        },
        {
          "internalType": "bool",
          "name": "isSoulbound",
          "type": "bool"
        },
        {
          "internalType": "string",
          "name": "name",
          "type": "string"
        },
        {
          "internalType": "string",
          "name": "description",
          "type": "string"
        }
      ],
      "name": "createNFT",
      "outputs": [],
      "stateMutability": "payable",
      "type": "function"
    },
    {
      "inputs": [
        {
          "internalType": "string",
          "name": "_tokenURI",
          "type": "string"
        },
        {
          "internalType": "string",
          "name": "description",
          "type": "string"
        },
        {
          "internalType": "string",
          "name": "name",
          "type": "string"
        },
        {
          "internalType": "uint256",
          "name": "_serialNo",
          "type": "uint256"
        }
      ],
      "name": "formatTokenURI",
      "outputs": [
        {
          "internalType": "string",
          "name": "",
          "type": "string"
        }
      ],
      "stateMutability": "pure",
      "type": "function"
    },
    {
      "inputs": [
        {
          "internalType": "uint256",
          "name": "tokenId",
          "type": "uint256"
        }
      ],
      "name": "getApproved",
      "outputs": [
        {
          "internalType": "address",
          "name": "",
          "type": "address"
        }
      ],
      "stateMutability": "view",
      "type": "function"
    },
    {
      "inputs": [],
      "name": "getNFTCount",
      "outputs": [
        {
          "internalType": "uint256",
          "name": "",
          "type": "uint256"
        }
      ],
      "stateMutability": "view",
      "type": "function"
    },
    {
      "inputs": [
        {
          "internalType": "uint256",
          "name": "_tokenId",
          "type": "uint256"
        }
      ],
      "name": "getNFTMetaData",
      "outputs": [
        {
          "internalType": "uint256",
          "name": "_price",
          "type": "uint256"
        },
        {
          "internalType": "string",
          "name": "_issueTime",
          "type": "string"
        },
        {
          "internalType": "string",
          "name": "_duration",
          "type": "string"
        },
        {
          "internalType": "uint256",
          "name": "_serialNo",
          "type": "uint256"
        },
        {
          "internalType": "address",
          "name": "_issuer",
          "type": "address"
        }
      ],
      "stateMutability": "view",
      "type": "function"
    },
    {
      "inputs": [
        {
          "internalType": "address",
          "name": "owner",
          "type": "address"
        },
        {
          "internalType": "address",
          "name": "operator",
          "type": "address"
        }
      ],
      "name": "isApprovedForAll",
      "outputs": [
        {
          "internalType": "bool",
          "name": "",
          "type": "bool"
        }
      ],
      "stateMutability": "view",
      "type": "function"
    },
    {
      "inputs": [
        {
          "internalType": "uint256",
          "name": "_tokenId",
          "type": "uint256"
        },
        {
          "internalType": "uint256",
          "name": "_price",
          "type": "uint256"
        }
      ],
      "name": "markNFTForSale",
      "outputs": [],
      "stateMutability": "nonpayable",
      "type": "function"
    },
    {
      "inputs": [],
      "name": "name",
      "outputs": [
        {
          "internalType": "string",
          "name": "",
          "type": "string"
        }
      ],
      "stateMutability": "view",
      "type": "function"
    },
    {
      "inputs": [
        {
          "internalType": "uint256",
          "name": "",
          "type": "uint256"
        }
      ],
      "name": "nfts",
      "outputs": [
        {
          "internalType": "uint256",
          "name": "tokenId",
          "type": "uint256"
        },
        {
          "internalType": "uint256",
          "name": "transfers",
          "type": "uint256"
        },
        {
          "internalType": "address payable",
          "name": "owner",
          "type": "address"
        },
        {
          "internalType": "bool",
          "name": "isForSale",
          "type": "bool"
        },
        {
          "internalType": "address",
          "name": "issuer",
          "type": "address"
        },
        {
          "internalType": "uint256",
          "name": "order_serial_number",
          "type": "uint256"
        },
        {
          "internalType": "string",
          "name": "issue_time",
          "type": "string"
        },
        {
          "internalType": "string",
          "name": "duration",
          "type": "string"
        },
        {
          "internalType": "bool",
          "name": "isSoulbound",
          "type": "bool"
        },
        {
          "internalType": "string",
          "name": "description",
          "type": "string"
        },
        {
          "internalType": "string",
          "name": "name",
          "type": "string"
        }
      ],
      "stateMutability": "view",
      "type": "function"
    },
    {
      "inputs": [],
      "name": "owner",
      "outputs": [
        {
          "internalType": "address payable",
          "name": "",
          "type": "address"
        }
      ],
      "stateMutability": "view",
      "type": "function"
    },
    {
      "inputs": [
        {
          "internalType": "uint256",
          "name": "tokenId",
          "type": "uint256"
        }
      ],
      "name": "ownerOf",
      "outputs": [
        {
          "internalType": "address",
          "name": "",
          "type": "address"
        }
      ],
      "stateMutability": "view",
      "type": "function"
    },
    {
      "inputs": [
        {
          "internalType": "address",
          "name": "from",
          "type": "address"
        },
        {
          "internalType": "address",
          "name": "to",
          "type": "address"
        },
        {
          "internalType": "uint256",
          "name": "tokenId",
          "type": "uint256"
        }
      ],
      "name": "safeTransferFrom",
      "outputs": [],
      "stateMutability": "nonpayable",
      "type": "function"
    },
    {
      "inputs": [
        {
          "internalType": "address",
          "name": "from",
          "type": "address"
        },
        {
          "internalType": "address",
          "name": "to",
          "type": "address"
        },
        {
          "internalType": "uint256",
          "name": "tokenId",
          "type": "uint256"
        },
        {
          "internalType": "bytes",
          "name": "data",
          "type": "bytes"
        }
      ],
      "name": "safeTransferFrom",
      "outputs": [],
      "stateMutability": "nonpayable",
      "type": "function"
    },
    {
      "inputs": [
        {
          "internalType": "address",
          "name": "operator",
          "type": "address"
        },
        {
          "internalType": "bool",
          "name": "approved",
          "type": "bool"
        }
      ],
      "name": "setApprovalForAll",
      "outputs": [],
      "stateMutability": "nonpayable",
      "type": "function"
    },
    {
      "inputs": [
        {
          "internalType": "bytes4",
          "name": "interfaceId",
          "type": "bytes4"
        }
      ],
      "name": "supportsInterface",
      "outputs": [
        {
          "internalType": "bool",
          "name": "",
          "type": "bool"
        }
      ],
      "stateMutability": "view",
      "type": "function"
    },
    {
      "inputs": [],
      "name": "symbol",
      "outputs": [
        {
          "internalType": "string",
          "name": "",
          "type": "string"
        }
      ],
      "stateMutability": "view",
      "type": "function"
    },
    {
      "inputs": [
        {
          "internalType": "uint256",
          "name": "tokenId",
          "type": "uint256"
        }
      ],
      "name": "tokenURI",
      "outputs": [
        {
          "internalType": "string",
          "name": "",
          "type": "string"
        }
      ],
      "stateMutability": "view",
      "type": "function"
    },
    {
      "inputs": [
        {
          "internalType": "address",
          "name": "from",
          "type": "address"
        },
        {
          "internalType": "address",
          "name": "to",
          "type": "address"
        },
        {
          "internalType": "uint256",
          "name": "tokenId",
          "type": "uint256"
        }
      ],
      "name": "transferFrom",
      "outputs": [],
      "stateMutability": "nonpayable",
      "type": "function"
    },
    {
      "inputs": [
        {
          "internalType": "address",
          "name": "_to",
          "type": "address"
        },
        {
          "internalType": "uint256",
          "name": "_tokenId",
          "type": "uint256"
        }
      ],
      "name": "transferNFT",
      "outputs": [],
      "stateMutability": "nonpayable",
      "type": "function"
    }
  ],
  "bytecode": "0x6080604052600160075560006009553480156200001b57600080fd5b5060408051808201825260078152661913585c9ad95d60ca1b602080830191825283518085019094526004845263111352d560e21b908401528151919291620000679160009162000098565b5080516200007d90600190602084019062000098565b5050600880546001600160a01b03191633179055506200017b565b828054620000a6906200013e565b90600052602060002090601f016020900481019282620000ca576000855562000115565b82601f10620000e557805160ff191683800117855562000115565b8280016001018555821562000115579182015b8281111562000115578251825591602001919060010190620000f8565b506200012392915062000127565b5090565b5b8082111562000123576000815560010162000128565b600181811c908216806200015357607f821691505b602082108114156200017557634e487b7160e01b600052602260045260246000fd5b50919050565b61273a806200018b6000396000f3fe6080604052600436106101355760003560e01c806363ca375b116100ab57806395d89b411161006f57806395d89b411461037c578063a22cb46514610391578063b88d4fde146103b1578063c87b56dd146103d1578063e3e52ba5146103f1578063e985e9c51461041157610135565b806363ca375b146102d857806370a08231146102eb57806388ef3f731461030b5780638da5cb5b1461033c57806394ab67fe1461035c57610135565b806323b872dd116100fd57806323b872dd1461020b578063265aa6211461022b57806342842e0e1461026257806351ed82881461028257806354279637146102955780636352211e146102b857610135565b806301ffc9a71461013a57806306fdde031461016f578063081812fc14610191578063092f6acc146101c9578063095ea7b3146101eb575b600080fd5b34801561014657600080fd5b5061015a61015536600461203b565b61045a565b60405190151581526020015b60405180910390f35b34801561017b57600080fd5b506101846104ae565b604051610166919061240e565b34801561019d57600080fd5b506101b16101ac366004612200565b610540565b6040516001600160a01b039091168152602001610166565b3480156101d557600080fd5b506101e96101e4366004612218565b610567565b005b3480156101f757600080fd5b506101e9610206366004612012565b61066a565b34801561021757600080fd5b506101e9610226366004611f35565b610780565b34801561023757600080fd5b5061024b610246366004612200565b6107b1565b6040516101669b9a99989796959493929190612531565b34801561026e57600080fd5b506101e961027d366004611f35565b610a41565b6101e9610290366004612200565b610a5c565b3480156102a157600080fd5b506102aa610c5b565b604051908152602001610166565b3480156102c457600080fd5b506101b16102d3366004612200565b610c71565b6101e96102e63660046120ff565b610cd1565b3480156102f757600080fd5b506102aa610306366004611ee9565b610f8a565b34801561031757600080fd5b5061032b610326366004612200565b611010565b6040516101669594939291906124e3565b34801561034857600080fd5b506008546101b1906001600160a01b031681565b34801561036857600080fd5b506101e9610377366004612012565b61117b565b34801561038857600080fd5b5061018461128c565b34801561039d57600080fd5b506101e96103ac366004611fe9565b61129b565b3480156103bd57600080fd5b506101e96103cc366004611f70565b6112aa565b3480156103dd57600080fd5b506101846103ec366004612200565b6112e2565b3480156103fd57600080fd5b5061018461040c366004612073565b6113f4565b34801561041d57600080fd5b5061015a61042c366004611f03565b6001600160a01b03918216600090815260056020908152604080832093909416825291909152205460ff1690565b60006001600160e01b031982166380ac58cd60e01b148061048b57506001600160e01b03198216635b5e139f60e01b145b806104a657506301ffc9a760e01b6001600160e01b03198316145b90505b919050565b6060600080546104bd90612642565b80601f01602080910402602001604051908101604052809291908181526020018280546104e990612642565b80156105365780601f1061050b57610100808354040283529160200191610536565b820191906000526020600020905b81548152906001019060200180831161051957829003601f168201915b5050505050905090565b600061054b8261144b565b506000908152600460205260409020546001600160a01b031690565b6000828152600260205260409020546001600160a01b03166105c55760405162461bcd60e51b815260206004820152601260248201527113919508191bd95cc81b9bdd08195e1a5cdd60721b60448201526064015b60405180910390fd5b6000828152600a60205260409020600201546001600160a01b0316331461063d5760405162461bcd60e51b815260206004820152602660248201527f596f752063616e206e6f74206d61726b206f7468657273204e465420666f722060448201526573616c652e2160d01b60648201526084016105bc565b6000918252600a60205260409091206001810191909155600201805460ff60a01b1916600160a01b179055565b600061067582610c71565b9050806001600160a01b0316836001600160a01b031614156106e35760405162461bcd60e51b815260206004820152602160248201527f4552433732313a20617070726f76616c20746f2063757272656e74206f776e656044820152603960f91b60648201526084016105bc565b336001600160a01b03821614806106ff57506106ff813361042c565b6107715760405162461bcd60e51b815260206004820152603e60248201527f4552433732313a20617070726f76652063616c6c6572206973206e6f7420746f60448201527f6b656e206f776e6572206e6f7220617070726f76656420666f7220616c6c000060648201526084016105bc565b61077b83836114ad565b505050565b61078a338261151b565b6107a65760405162461bcd60e51b81526004016105bc90612495565b61077b838383611599565b600a60205260009081526040902080546001820154600283015460038401546004850154600586018054959694956001600160a01b0380861696600160a01b90960460ff1695941693919061080590612642565b80601f016020809104026020016040519081016040528092919081815260200182805461083190612642565b801561087e5780601f106108535761010080835404028352916020019161087e565b820191906000526020600020905b81548152906001019060200180831161086157829003601f168201915b50505050509080600601805461089390612642565b80601f01602080910402602001604051908101604052809291908181526020018280546108bf90612642565b801561090c5780601f106108e15761010080835404028352916020019161090c565b820191906000526020600020905b8154815290600101906020018083116108ef57829003601f168201915b5050506007840154600885018054949560ff90921694919350915061093090612642565b80601f016020809104026020016040519081016040528092919081815260200182805461095c90612642565b80156109a95780601f1061097e576101008083540402835291602001916109a9565b820191906000526020600020905b81548152906001019060200180831161098c57829003601f168201915b5050505050908060090180546109be90612642565b80601f01602080910402602001604051908101604052809291908181526020018280546109ea90612642565b8015610a375780601f10610a0c57610100808354040283529160200191610a37565b820191906000526020600020905b815481529060010190602001808311610a1a57829003601f168201915b505050505090508b565b61077b838383604051806020016040528060008152506112aa565b6000818152600260205260409020546001600160a01b0316610ab55760405162461bcd60e51b815260206004820152601260248201527113919508191bd95cc81b9bdd08195e1a5cdd60721b60448201526064016105bc565b6000818152600a6020526040902060020154600160a01b900460ff16610b135760405162461bcd60e51b81526020600482015260136024820152724e4654206973206e6f7420666f722073616c6560681b60448201526064016105bc565b6000818152600a60205260409020600201546001600160a01b0316331415610b7d5760405162461bcd60e51b815260206004820152601e60248201527f596f752063616e206e6f742062757920796f7572206f776e204e46542e21000060448201526064016105bc565b6000818152600a6020526040902060020154610ba3906001600160a01b03163383611599565b6000818152600a60205260408082206002015490516001600160a01b03909116913480156108fc02929091818181858888f19350505050158015610beb573d6000803e3d6000fd5b506000818152600a60209081526040918290206002810180546001600160a81b0319163360ff60a01b198116919091179091556001909101549251928352839290917f5d963241241cfe9e161d13500d628058954b3febfde03e4b1f4071370e72fe2b910160405180910390a350565b60006001600754610c6c91906125ff565b905090565b6000818152600260205260408120546001600160a01b0316806104a65760405162461bcd60e51b8152602060048201526018602482015277115490cdcc8c4e881a5b9d985b1a59081d1bdad95b88125160421b60448201526064016105bc565b6009543414610d225760405162461bcd60e51b815260206004820152601e60248201527f596f75206d7573742070617920746865206c697374696e67207072696365000060448201526064016105bc565b6040518061016001604052806007548152602001898152602001336001600160a01b03168152602001600015158152602001856001600160a01b03168152602001868152602001888152602001878152602001841515815260200182815260200183815250600a60006007548152602001908152602001600020600082015181600001556020820151816001015560408201518160020160006101000a8154816001600160a01b0302191690836001600160a01b0316021790555060608201518160020160146101000a81548160ff02191690831515021790555060808201518160030160006101000a8154816001600160a01b0302191690836001600160a01b0316021790555060a0820151816004015560c0820151816005019080519060200190610e50929190611d94565b5060e08201518051610e6c916006840191602090910190611d94565b5061010082015160078201805460ff19169115159190911790556101208201518051610ea2916008840191602090910190611d94565b506101408201518051610ebf916009840191602090910190611d94565b50905050610ecf33600754611740565b610ee6600754610ee18b84868a6113f4565b61175a565b6008546040516001600160a01b03909116903480156108fc02916000818181858888f19350505050158015610f1f573d6000803e3d6000fd5b5060078054906000610f308361267d565b90915550506007543390610f46906001906125ff565b7f6bec5b594585f8c2d37d991853d8f5907b3cdd2f6bf5c0eac89f8246cc5000998b8b604051610f77929190612421565b60405180910390a3505050505050505050565b60006001600160a01b038216610ff45760405162461bcd60e51b815260206004820152602960248201527f4552433732313a2061646472657373207a65726f206973206e6f7420612076616044820152683634b21037bbb732b960b91b60648201526084016105bc565b506001600160a01b031660009081526003602052604090205490565b6000818152600a6020526040812060018101546004820154600383015460058401805460609586958895869591949360069093019290916001600160a01b031690849061105c90612642565b80601f016020809104026020016040519081016040528092919081815260200182805461108890612642565b80156110d55780601f106110aa576101008083540402835291602001916110d5565b820191906000526020600020905b8154815290600101906020018083116110b857829003601f168201915b505050505093508280546110e890612642565b80601f016020809104026020016040519081016040528092919081815260200182805461111490612642565b80156111615780601f1061113657610100808354040283529160200191611161565b820191906000526020600020905b81548152906001019060200180831161114457829003601f168201915b505050505092509450945094509450945091939590929450565b6000818152600a60205260409020600201546001600160a01b0316331461120a5760405162461bcd60e51b815260206004820152603d60248201527f4e465420646f6573206e6f7420657869737473206f7220796f7520646f6e742060448201527f68617665207065726d697373696f6e20746f207472616e736665722e2100000060648201526084016105bc565b6000818152600a6020526040902060020154611230906001600160a01b03168383611599565b6000818152600a602052604080822060020180546001600160a01b0319166001600160a01b0386169081179091559051839233917fa64cdec004d2859ac7547f4ed3252f53d0fa0b8dcbcc93a47894eee072714b629190a45050565b6060600180546104bd90612642565b6112a63383836117f4565b5050565b6112b4338361151b565b6112d05760405162461bcd60e51b81526004016105bc90612495565b6112dc848484846118c3565b50505050565b60606112ed8261144b565b6000828152600660205260408120805461130690612642565b80601f016020809104026020016040519081016040528092919081815260200182805461133290612642565b801561137f5780601f106113545761010080835404028352916020019161137f565b820191906000526020600020905b81548152906001019060200180831161136257829003601f168201915b50505050509050600061139d60408051602081019091526000815290565b90508051600014156113b1575090506104a9565b8151156113e35780826040516020016113cb929190612265565b604051602081830303815290604052925050506104a9565b6113ec846118f6565b949350505050565b606082846114018461196a565b876040516020016114159493929190612294565b60408051601f198184030181529082905261143291602001612393565b6040516020818303038152906040529050949350505050565b6000818152600260205260409020546001600160a01b03166114aa5760405162461bcd60e51b8152602060048201526018602482015277115490cdcc8c4e881a5b9d985b1a59081d1bdad95b88125160421b60448201526064016105bc565b50565b600081815260046020526040902080546001600160a01b0319166001600160a01b03841690811790915581906114e282610c71565b6001600160a01b03167f8c5be1e5ebec7d5bd14f71427d1e84f3dd0314c0f7b2291e5b200ac8c7c3b92560405160405180910390a45050565b60008061152783610c71565b9050806001600160a01b0316846001600160a01b0316148061156e57506001600160a01b0380821660009081526005602090815260408083209388168352929052205460ff165b806113ec5750836001600160a01b031661158784610540565b6001600160a01b031614949350505050565b826001600160a01b03166115ac82610c71565b6001600160a01b0316146116105760405162461bcd60e51b815260206004820152602560248201527f4552433732313a207472616e736665722066726f6d20696e636f72726563742060448201526437bbb732b960d91b60648201526084016105bc565b6001600160a01b0382166116725760405162461bcd60e51b8152602060048201526024808201527f4552433732313a207472616e7366657220746f20746865207a65726f206164646044820152637265737360e01b60648201526084016105bc565b61167d838383611a85565b6116886000826114ad565b6001600160a01b03831660009081526003602052604081208054600192906116b19084906125ff565b90915550506001600160a01b03821660009081526003602052604081208054600192906116df9084906125d3565b909155505060008181526002602052604080822080546001600160a01b0319166001600160a01b0386811691821790925591518493918716917fddf252ad1be2c89b69c2b068fc378daa952ba7f163c4a11628f55a4df523b3ef91a461077b565b6112a6828260405180602001604052806000815250611b08565b6000828152600260205260409020546001600160a01b03166117d55760405162461bcd60e51b815260206004820152602e60248201527f45524337323155524953746f726167653a2055524920736574206f66206e6f6e60448201526d32bc34b9ba32b73a103a37b5b2b760911b60648201526084016105bc565b6000828152600660209081526040909120825161077b92840190611d94565b816001600160a01b0316836001600160a01b031614156118565760405162461bcd60e51b815260206004820152601960248201527f4552433732313a20617070726f766520746f2063616c6c65720000000000000060448201526064016105bc565b6001600160a01b03838116600081815260056020908152604080832094871680845294825291829020805460ff191686151590811790915591519182527f17307eab39ab6107e8899845ad3d59bd9653f200f220920489ca2b5937696c31910160405180910390a3505050565b6118ce848484611599565b6118da84848484611b3b565b6112dc5760405162461bcd60e51b81526004016105bc90612443565b60606119018261144b565b600061191860408051602081019091526000815290565b905060008151116119385760405180602001604052806000815250611963565b806119428461196a565b604051602001611953929190612265565b6040516020818303038152906040525b9392505050565b60608161198f57506040805180820190915260018152600360fc1b60208201526104a9565b8160005b81156119b957806119a38161267d565b91506119b29050600a836125eb565b9150611993565b60008167ffffffffffffffff8111156119e257634e487b7160e01b600052604160045260246000fd5b6040519080825280601f01601f191660200182016040528015611a0c576020820181803683370190505b5090505b84156113ec57611a216001836125ff565b9150611a2e600a86612698565b611a399060306125d3565b60f81b818381518110611a5c57634e487b7160e01b600052603260045260246000fd5b60200101906001600160f81b031916908160001a905350611a7e600a866125eb565b9450611a10565b6000818152600a602052604090206007015460ff161561077b576001600160a01b0383161580611abc57506001600160a01b038216155b61077b5760405162461bcd60e51b815260206004820152601760248201527f49742063616e6e6f74206265207472616e73666572656400000000000000000060448201526064016105bc565b611b128383611c45565b611b1f6000848484611b3b565b61077b5760405162461bcd60e51b81526004016105bc90612443565b60006001600160a01b0384163b15611c3d57604051630a85bd0160e11b81526001600160a01b0385169063150b7a0290611b7f9033908990889088906004016123d1565b602060405180830381600087803b158015611b9957600080fd5b505af1925050508015611bc9575060408051601f3d908101601f19168201909252611bc691810190612057565b60015b611c23573d808015611bf7576040519150601f19603f3d011682016040523d82523d6000602084013e611bfc565b606091505b508051611c1b5760405162461bcd60e51b81526004016105bc90612443565b805181602001fd5b6001600160e01b031916630a85bd0160e11b1490506113ec565b5060016113ec565b6001600160a01b038216611c9b5760405162461bcd60e51b815260206004820181905260248201527f4552433732313a206d696e7420746f20746865207a65726f206164647265737360448201526064016105bc565b6000818152600260205260409020546001600160a01b031615611d005760405162461bcd60e51b815260206004820152601c60248201527f4552433732313a20746f6b656e20616c7265616479206d696e7465640000000060448201526064016105bc565b611d0c60008383611a85565b6001600160a01b0382166000908152600360205260408120805460019290611d359084906125d3565b909155505060008181526002602052604080822080546001600160a01b0319166001600160a01b03861690811790915590518392907fddf252ad1be2c89b69c2b068fc378daa952ba7f163c4a11628f55a4df523b3ef908290a46112a6565b828054611da090612642565b90600052602060002090601f016020900481019282611dc25760008555611e08565b82601f10611ddb57805160ff1916838001178555611e08565b82800160010185558215611e08579182015b82811115611e08578251825591602001919060010190611ded565b50611e14929150611e18565b5090565b5b80821115611e145760008155600101611e19565b600067ffffffffffffffff80841115611e4857611e486126d8565b604051601f8501601f19908116603f01168101908282118183101715611e7057611e706126d8565b81604052809350858152868686011115611e8957600080fd5b858560208301376000602087830101525050509392505050565b80356001600160a01b03811681146104a957600080fd5b803580151581146104a957600080fd5b600082601f830112611eda578081fd5b61196383833560208501611e2d565b600060208284031215611efa578081fd5b61196382611ea3565b60008060408385031215611f15578081fd5b611f1e83611ea3565b9150611f2c60208401611ea3565b90509250929050565b600080600060608486031215611f49578081fd5b611f5284611ea3565b9250611f6060208501611ea3565b9150604084013590509250925092565b60008060008060808587031215611f85578081fd5b611f8e85611ea3565b9350611f9c60208601611ea3565b925060408501359150606085013567ffffffffffffffff811115611fbe578182fd5b8501601f81018713611fce578182fd5b611fdd87823560208401611e2d565b91505092959194509250565b60008060408385031215611ffb578182fd5b61200483611ea3565b9150611f2c60208401611eba565b60008060408385031215612024578182fd5b61202d83611ea3565b946020939093013593505050565b60006020828403121561204c578081fd5b8135611963816126ee565b600060208284031215612068578081fd5b8151611963816126ee565b60008060008060808587031215612088578384fd5b843567ffffffffffffffff8082111561209f578586fd5b6120ab88838901611eca565b955060208701359150808211156120c0578485fd5b6120cc88838901611eca565b945060408701359150808211156120e1578384fd5b506120ee87828801611eca565b949793965093946060013593505050565b60008060008060008060008060006101208a8c03121561211d578485fd5b893567ffffffffffffffff80821115612134578687fd5b6121408d838e01611eca565b9a5060208c0135995060408c013591508082111561215c578687fd5b6121688d838e01611eca565b985060608c013591508082111561217d578687fd5b6121898d838e01611eca565b975060808c0135965061219e60a08d01611ea3565b95506121ac60c08d01611eba565b945060e08c01359150808211156121c1578384fd5b6121cd8d838e01611eca565b93506101008c01359150808211156121e3578283fd5b506121f08c828d01611eca565b9150509295985092959850929598565b600060208284031215612211578081fd5b5035919050565b6000806040838503121561222a578182fd5b50508035926020909101359150565b60008151808452612251816020860160208601612616565b601f01601f19169290920160200192915050565b60008351612277818460208801612616565b83519083019061228b818360208801612616565b01949350505050565b683d913730b6b2911d1160b91b815284516000906122b9816009850160208a01612616565b71111610113232b9b1b934b83a34b7b7111d1160711b60099184019182015285516122eb81601b840160208a01612616565b7f222c202261747472696275746573223a5b7b2274726169745f74797065223a20601b9290910191820152741139b2b934b0b62fb7379116113b30b63ab2911d1160591b603b8201528451612347816050840160208901612616565b6d113eae96101134b6b0b3b2911d1160911b60509290910191820152835161237681605e840160208801612616565b61227d60f01b605e92909101918201526060019695505050505050565b60007519185d184e985c1c1b1a58d85d1a5bdb8bda9cdbdb8b60521b825282516123c4816016850160208701612616565b9190910160160192915050565b6001600160a01b038581168252841660208201526040810183905260806060820181905260009061240490830184612239565b9695505050505050565b6000602082526119636020830184612239565b6000604082526124346040830185612239565b90508260208301529392505050565b60208082526032908201527f4552433732313a207472616e7366657220746f206e6f6e20455243373231526560408201527131b2b4bb32b91034b6b83632b6b2b73a32b960711b606082015260800190565b6020808252602e908201527f4552433732313a2063616c6c6572206973206e6f7420746f6b656e206f776e6560408201526d1c881b9bdc88185c1c1c9bdd995960921b606082015260800190565b600086825260a060208301526124fc60a0830187612239565b828103604084015261250e8187612239565b606084019590955250506001600160a01b03919091166080909101529392505050565b8b8152602081018b90526001600160a01b038a8116604083015289151560608301528816608082015260a0810187905261016060c0820181905260009061257a83820189612239565b905082810360e084015261258e8188612239565b90508515156101008401528281036101208401526125ac8186612239565b90508281036101408401526125c18185612239565b9e9d5050505050505050505050505050565b600082198211156125e6576125e66126ac565b500190565b6000826125fa576125fa6126c2565b500490565b600082821015612611576126116126ac565b500390565b60005b83811015612631578181015183820152602001612619565b838111156112dc5750506000910152565b600181811c9082168061265657607f821691505b6020821081141561267757634e487b7160e01b600052602260045260246000fd5b50919050565b6000600019821415612691576126916126ac565b5060010190565b6000826126a7576126a76126c2565b500690565b634e487b7160e01b600052601160045260246000fd5b634e487b7160e01b600052601260045260246000fd5b634e487b7160e01b600052604160045260246000fd5b6001600160e01b0319811681146114aa57600080fdfea2646970667358221220053efb2d17bb717737b5e425aa1fd1e46c814b5947a45db5e12fbf235215bc4d64736f6c63430008030033",
  "linkReferences": {},
  "deployedLinkReferences": {}
}