{
  "_format": "hh-sol-artifact-1",
  "contractName": "dMarket",
  "sourceName": "contracts/dMarket.sol",
  "abi": [
    {
      "inputs": [],
      "stateMutability": "nonpayable",
      "type": "constructor"
    },
    {
      "anonymous": false,
      "inputs": [
        {
          "indexed": true,
          "internalType": "address",
          "name": "owner",
          "type": "address"
        },
        {
          "indexed": true,
          "internalType": "address",
          "name": "approved",
          "type": "address"
        },
        {
          "indexed": true,
          "internalType": "uint256",
          "name": "tokenId",
          "type": "uint256"
        }
      ],
      "name": "Approval",
      "type": "event"
    },
    {
      "anonymous": false,
      "inputs": [
        {
          "indexed": true,
          "internalType": "address",
          "name": "owner",
          "type": "address"
        },
        {
          "indexed": true,
          "internalType": "address",
          "name": "operator",
          "type": "address"
        },
        {
          "indexed": false,
          "internalType": "bool",
          "name": "approved",
          "type": "bool"
        }
      ],
      "name": "ApprovalForAll",
      "type": "event"
    },
    {
      "anonymous": false,
      "inputs": [
        {
          "indexed": true,
          "internalType": "address",
          "name": "_buyer",
          "type": "address"
        },
        {
          "indexed": true,
          "internalType": "uint256",
          "name": "_tokenId",
          "type": "uint256"
        }
      ],
      "name": "BuyNFT",
      "type": "event"
    },
    {
      "anonymous": false,
      "inputs": [
        {
          "indexed": true,
          "internalType": "uint256",
          "name": "_tokenId",
          "type": "uint256"
        },
        {
          "indexed": false,
          "internalType": "string",
          "name": "_tokenURI",
          "type": "string"
        },
        {
          "indexed": true,
          "internalType": "address",
          "name": "_owner",
          "type": "address"
        },
        {
          "indexed": false,
          "internalType": "uint256",
          "name": "transfers",
          "type": "uint256"
        },
        {
          "indexed": false,
          "internalType": "address",
          "name": "issuer",
          "type": "address"
        },
        {
          "indexed": false,
          "internalType": "uint256",
          "name": "order_serial_number",
          "type": "uint256"
        },
        {
          "indexed": false,
          "internalType": "string",
          "name": "issue_time",
          "type": "string"
        },
        {
          "indexed": false,
          "internalType": "string",
          "name": "duration",
          "type": "string"
        },
        {
          "indexed": false,
          "internalType": "string",
          "name": "description",
          "type": "string"
        },
        {
          "indexed": false,
          "internalType": "string",
          "name": "name",
          "type": "string"
        },
        {
          "indexed": false,
          "internalType": "string",
          "name": "rarity",
          "type": "string"
        }
      ],
      "name": "CreateNFT",
      "type": "event"
    },
    {
      "anonymous": false,
      "inputs": [
        {
          "indexed": true,
          "internalType": "address",
          "name": "from",
          "type": "address"
        },
        {
          "indexed": true,
          "internalType": "address",
          "name": "to",
          "type": "address"
        },
        {
          "indexed": true,
          "internalType": "uint256",
          "name": "tokenId",
          "type": "uint256"
        }
      ],
      "name": "Transfer",
      "type": "event"
    },
    {
      "anonymous": false,
      "inputs": [
        {
          "indexed": true,
          "internalType": "address",
          "name": "_from",
          "type": "address"
        },
        {
          "indexed": true,
          "internalType": "address",
          "name": "_to",
          "type": "address"
        },
        {
          "indexed": true,
          "internalType": "uint256",
          "name": "_tokenId",
          "type": "uint256"
        }
      ],
      "name": "TransferNFT",
      "type": "event"
    },
    {
      "inputs": [
        {
          "internalType": "address",
          "name": "to",
          "type": "address"
        },
        {
          "internalType": "uint256",
          "name": "tokenId",
          "type": "uint256"
        }
      ],
      "name": "approve",
      "outputs": [],
      "stateMutability": "nonpayable",
      "type": "function"
    },
    {
      "inputs": [
        {
          "internalType": "address",
          "name": "owner",
          "type": "address"
        }
      ],
      "name": "balanceOf",
      "outputs": [
        {
          "internalType": "uint256",
          "name": "",
          "type": "uint256"
        }
      ],
      "stateMutability": "view",
      "type": "function"
    },
    {
      "inputs": [
        {
          "internalType": "string",
          "name": "_tokenURI",
          "type": "string"
        },
        {
          "internalType": "uint256",
          "name": "_transfers",
          "type": "uint256"
        },
        {
          "internalType": "string",
          "name": "_issueTime",
          "type": "string"
        },
        {
          "internalType": "string",
          "name": "_duration",
          "type": "string"
        },
        {
          "internalType": "uint256",
          "name": "_serialNo",
          "type": "uint256"
        },
        {
          "internalType": "address",
          "name": "_issuer",
          "type": "address"
        },
        {
          "internalType": "bool",
          "name": "isSoulbound",
          "type": "bool"
        },
        {
          "internalType": "string",
          "name": "name",
          "type": "string"
        },
        {
          "internalType": "string",
          "name": "description",
          "type": "string"
        },
        {
          "internalType": "string",
          "name": "_rarity",
          "type": "string"
        }
      ],
      "name": "createNFT",
      "outputs": [
        {
          "internalType": "uint256",
          "name": "",
          "type": "uint256"
        }
      ],
      "stateMutability": "payable",
      "type": "function"
    },
    {
      "inputs": [
        {
          "internalType": "string",
          "name": "_tokenURI",
          "type": "string"
        },
        {
          "internalType": "string",
          "name": "description",
          "type": "string"
        },
        {
          "internalType": "string",
          "name": "name",
          "type": "string"
        },
        {
          "internalType": "uint256",
          "name": "_serialNo",
          "type": "uint256"
        },
        {
          "internalType": "string",
          "name": "_rarity",
          "type": "string"
        }
      ],
      "name": "formatTokenURI",
      "outputs": [
        {
          "internalType": "string",
          "name": "",
          "type": "string"
        }
      ],
      "stateMutability": "pure",
      "type": "function"
    },
    {
      "inputs": [
        {
          "internalType": "uint256",
          "name": "tokenId",
          "type": "uint256"
        }
      ],
      "name": "getApproved",
      "outputs": [
        {
          "internalType": "address",
          "name": "",
          "type": "address"
        }
      ],
      "stateMutability": "view",
      "type": "function"
    },
    {
      "inputs": [],
      "name": "getNFTCount",
      "outputs": [
        {
          "internalType": "uint256",
          "name": "",
          "type": "uint256"
        }
      ],
      "stateMutability": "view",
      "type": "function"
    },
    {
      "inputs": [
        {
          "internalType": "uint256",
          "name": "_tokenId",
          "type": "uint256"
        }
      ],
      "name": "getNFTMetaData",
      "outputs": [
        {
          "internalType": "uint256",
          "name": "_price",
          "type": "uint256"
        },
        {
          "internalType": "address",
          "name": "_owner",
          "type": "address"
        },
        {
          "internalType": "bool",
          "name": "forSale",
          "type": "bool"
        },
        {
          "internalType": "bool",
          "name": "soulBound",
          "type": "bool"
        }
      ],
      "stateMutability": "view",
      "type": "function"
    },
    {
      "inputs": [
        {
          "internalType": "address",
          "name": "owner",
          "type": "address"
        },
        {
          "internalType": "address",
          "name": "operator",
          "type": "address"
        }
      ],
      "name": "isApprovedForAll",
      "outputs": [
        {
          "internalType": "bool",
          "name": "",
          "type": "bool"
        }
      ],
      "stateMutability": "view",
      "type": "function"
    },
    {
      "inputs": [],
      "name": "name",
      "outputs": [
        {
          "internalType": "string",
          "name": "",
          "type": "string"
        }
      ],
      "stateMutability": "view",
      "type": "function"
    },
    {
      "inputs": [
        {
          "internalType": "uint256",
          "name": "",
          "type": "uint256"
        }
      ],
      "name": "nfts",
      "outputs": [
        {
          "internalType": "uint256",
          "name": "tokenId",
          "type": "uint256"
        },
        {
          "internalType": "address payable",
          "name": "owner",
          "type": "address"
        },
        {
          "internalType": "bool",
          "name": "isForSale",
          "type": "bool"
        },
        {
          "internalType": "bool",
          "name": "isSoulbound",
          "type": "bool"
        }
      ],
      "stateMutability": "view",
      "type": "function"
    },
    {
      "inputs": [],
      "name": "owner",
      "outputs": [
        {
          "internalType": "address payable",
          "name": "",
          "type": "address"
        }
      ],
      "stateMutability": "view",
      "type": "function"
    },
    {
      "inputs": [
        {
          "internalType": "uint256",
          "name": "tokenId",
          "type": "uint256"
        }
      ],
      "name": "ownerOf",
      "outputs": [
        {
          "internalType": "address",
          "name": "",
          "type": "address"
        }
      ],
      "stateMutability": "view",
      "type": "function"
    },
    {
      "inputs": [
        {
          "internalType": "address",
          "name": "from",
          "type": "address"
        },
        {
          "internalType": "address",
          "name": "to",
          "type": "address"
        },
        {
          "internalType": "uint256",
          "name": "tokenId",
          "type": "uint256"
        }
      ],
      "name": "safeTransferFrom",
      "outputs": [],
      "stateMutability": "nonpayable",
      "type": "function"
    },
    {
      "inputs": [
        {
          "internalType": "address",
          "name": "from",
          "type": "address"
        },
        {
          "internalType": "address",
          "name": "to",
          "type": "address"
        },
        {
          "internalType": "uint256",
          "name": "tokenId",
          "type": "uint256"
        },
        {
          "internalType": "bytes",
          "name": "data",
          "type": "bytes"
        }
      ],
      "name": "safeTransferFrom",
      "outputs": [],
      "stateMutability": "nonpayable",
      "type": "function"
    },
    {
      "inputs": [
        {
          "internalType": "address",
          "name": "operator",
          "type": "address"
        },
        {
          "internalType": "bool",
          "name": "approved",
          "type": "bool"
        }
      ],
      "name": "setApprovalForAll",
      "outputs": [],
      "stateMutability": "nonpayable",
      "type": "function"
    },
    {
      "inputs": [
        {
          "internalType": "bytes4",
          "name": "interfaceId",
          "type": "bytes4"
        }
      ],
      "name": "supportsInterface",
      "outputs": [
        {
          "internalType": "bool",
          "name": "",
          "type": "bool"
        }
      ],
      "stateMutability": "view",
      "type": "function"
    },
    {
      "inputs": [],
      "name": "symbol",
      "outputs": [
        {
          "internalType": "string",
          "name": "",
          "type": "string"
        }
      ],
      "stateMutability": "view",
      "type": "function"
    },
    {
      "inputs": [
        {
          "internalType": "uint256",
          "name": "tokenId",
          "type": "uint256"
        }
      ],
      "name": "tokenURI",
      "outputs": [
        {
          "internalType": "string",
          "name": "",
          "type": "string"
        }
      ],
      "stateMutability": "view",
      "type": "function"
    },
    {
      "inputs": [
        {
          "internalType": "address",
          "name": "from",
          "type": "address"
        },
        {
          "internalType": "address",
          "name": "to",
          "type": "address"
        },
        {
          "internalType": "uint256",
          "name": "tokenId",
          "type": "uint256"
        }
      ],
      "name": "transferFrom",
      "outputs": [],
      "stateMutability": "nonpayable",
      "type": "function"
    },
    {
      "inputs": [
        {
          "internalType": "address",
          "name": "_to",
          "type": "address"
        },
        {
          "internalType": "uint256",
          "name": "_tokenId",
          "type": "uint256"
        }
      ],
      "name": "transferNFT",
      "outputs": [],
      "stateMutability": "nonpayable",
      "type": "function"
    }
  ],
  "bytecode": "0x6080604052600160075560006009553480156200001b57600080fd5b5060408051808201825260078152661913585c9ad95d60ca1b602080830191825283518085019094526004845263111352d560e21b908401528151919291620000679160009162000098565b5080516200007d90600190602084019062000098565b5050600880546001600160a01b03191633179055506200017b565b828054620000a6906200013e565b90600052602060002090601f016020900481019282620000ca576000855562000115565b82601f10620000e557805160ff191683800117855562000115565b8280016001018555821562000115579182015b8281111562000115578251825591602001919060010190620000f8565b506200012392915062000127565b5090565b5b8082111562000123576000815560010162000128565b600181811c908216806200015357607f821691505b602082108114156200017557634e487b7160e01b600052602260045260246000fd5b50919050565b611faa806200018b6000396000f3fe60806040526004361061011f5760003560e01c806388ef3f73116100a0578063b88d4fde11610064578063b88d4fde146103c7578063c87b56dd146103e7578063d17ac0e514610407578063d5ec7abe14610427578063e985e9c51461043a5761011f565b806388ef3f73146102fb5780638da5cb5b1461035257806394ab67fe1461037257806395d89b4114610392578063a22cb465146103a75761011f565b8063265aa621116100e7578063265aa621146101f557806342842e0e1461027857806354279637146102985780636352211e146102bb57806370a08231146102db5761011f565b806301ffc9a71461012457806306fdde0314610159578063081812fc1461017b578063095ea7b3146101b357806323b872dd146101d5575b600080fd5b34801561013057600080fd5b5061014461013f366004611888565b610483565b60405190151581526020015b60405180910390f35b34801561016557600080fd5b5061016e6104d7565b6040516101509190611cea565b34801561018757600080fd5b5061019b610196366004611a98565b610569565b6040516001600160a01b039091168152602001610150565b3480156101bf57600080fd5b506101d36101ce36600461185f565b610590565b005b3480156101e157600080fd5b506101d36101f0366004611782565b6106ab565b34801561020157600080fd5b50610248610210366004611a98565b600a60205260009081526040902080546001909101546001600160a01b0381169060ff600160a01b8204811691600160a81b90041684565b604080519485526001600160a01b0390931660208501529015159183019190915215156060820152608001610150565b34801561028457600080fd5b506101d3610293366004611782565b6106dc565b3480156102a457600080fd5b506102ad6106f7565b604051908152602001610150565b3480156102c757600080fd5b5061019b6102d6366004611a98565b61070d565b3480156102e757600080fd5b506102ad6102f6366004611736565b61076d565b34801561030757600080fd5b50610248610316366004611a98565b6000818152600a6020526040902080546001909101546001600160a01b0381169060ff600160a01b8204811691600160a81b9004169193509193565b34801561035e57600080fd5b5060085461019b906001600160a01b031681565b34801561037e57600080fd5b506101d361038d36600461185f565b6107f3565b34801561039e57600080fd5b5061016e610904565b3480156103b357600080fd5b506101d36103c2366004611836565b610913565b3480156103d357600080fd5b506101d36103e23660046117bd565b610922565b3480156103f357600080fd5b5061016e610402366004611a98565b61095a565b34801561041357600080fd5b5061016e6104223660046118c0565b610a6c565b6102ad610435366004611972565b610ac6565b34801561044657600080fd5b50610144610455366004611750565b6001600160a01b03918216600090815260056020908152604080832093909416825291909152205460ff1690565b60006001600160e01b031982166380ac58cd60e01b14806104b457506001600160e01b03198216635b5e139f60e01b145b806104cf57506301ffc9a760e01b6001600160e01b03198316145b90505b919050565b6060600080546104e690611eb2565b80601f016020809104026020016040519081016040528092919081815260200182805461051290611eb2565b801561055f5780601f106105345761010080835404028352916020019161055f565b820191906000526020600020905b81548152906001019060200180831161054257829003601f168201915b5050505050905090565b600061057482610c8e565b506000908152600460205260409020546001600160a01b031690565b600061059b8261070d565b9050806001600160a01b0316836001600160a01b0316141561060e5760405162461bcd60e51b815260206004820152602160248201527f4552433732313a20617070726f76616c20746f2063757272656e74206f776e656044820152603960f91b60648201526084015b60405180910390fd5b336001600160a01b038216148061062a575061062a8133610455565b61069c5760405162461bcd60e51b815260206004820152603e60248201527f4552433732313a20617070726f76652063616c6c6572206973206e6f7420746f60448201527f6b656e206f776e6572206e6f7220617070726f76656420666f7220616c6c00006064820152608401610605565b6106a68383610cf0565b505050565b6106b53382610d5e565b6106d15760405162461bcd60e51b815260040161060590611df5565b6106a6838383610ddc565b6106a683838360405180602001604052806000815250610922565b600060016007546107089190611e6f565b905090565b6000818152600260205260408120546001600160a01b0316806104cf5760405162461bcd60e51b8152602060048201526018602482015277115490cdcc8c4e881a5b9d985b1a59081d1bdad95b88125160421b6044820152606401610605565b60006001600160a01b0382166107d75760405162461bcd60e51b815260206004820152602960248201527f4552433732313a2061646472657373207a65726f206973206e6f7420612076616044820152683634b21037bbb732b960b91b6064820152608401610605565b506001600160a01b031660009081526003602052604090205490565b6000818152600a60205260409020600101546001600160a01b031633146108825760405162461bcd60e51b815260206004820152603d60248201527f4e465420646f6573206e6f7420657869737473206f7220796f7520646f6e742060448201527f68617665207065726d697373696f6e20746f207472616e736665722e210000006064820152608401610605565b6000818152600a60205260409020600101546108a8906001600160a01b031683836106dc565b6000818152600a602052604080822060010180546001600160a01b0319166001600160a01b0386169081179091559051839233917fa64cdec004d2859ac7547f4ed3252f53d0fa0b8dcbcc93a47894eee072714b629190a45050565b6060600180546104e690611eb2565b61091e338383610f83565b5050565b61092c3383610d5e565b6109485760405162461bcd60e51b815260040161060590611df5565b61095484848484611052565b50505050565b606061096582610c8e565b6000828152600660205260408120805461097e90611eb2565b80601f01602080910402602001604051908101604052809291908181526020018280546109aa90611eb2565b80156109f75780601f106109cc576101008083540402835291602001916109f7565b820191906000526020600020905b8154815290600101906020018083116109da57829003601f168201915b505050505090506000610a1560408051602081019091526000815290565b9050805160001415610a29575090506104d2565b815115610a5b578082604051602001610a43929190611af8565b604051602081830303815290604052925050506104d2565b610a6484611085565b949350505050565b60608385610a79856110f9565b8489604051602001610a8f959493929190611b27565b60408051601f1981840301815290829052610aac91602001611c6f565b604051602081830303815290604052905095945050505050565b60006009543414610b195760405162461bcd60e51b815260206004820152601e60248201527f596f75206d7573742070617920746865206c697374696e6720707269636500006044820152606401610605565b604080516080810182526007805480835233602080850182815260008688018181528d151560608901908152958252600a909352969096209451855594516001949094018054955192511515600160a81b0260ff60a81b19931515600160a01b026001600160a81b03199097166001600160a01b0396909616959095179590951791909116929092179092559054610bb19190611214565b610bc9600754610bc48d86888c88610a6c565b61122e565b6008546040516001600160a01b03909116903480156108fc02916000818181858888f19350505050158015610c02573d6000803e3d6000fd5b5060078054906000610c1383611eed565b90915550506007543390610c2990600190611e6f565b7fe0daffc74ee533aed3a9c8bf2af1e127e2dae024fbb9629e9878e346e3043e658d8d8a8c8f8f8b8d8c604051610c6899989796959493929190611cfd565b60405180910390a36001600754610c7f9190611e6f565b9b9a5050505050505050505050565b6000818152600260205260409020546001600160a01b0316610ced5760405162461bcd60e51b8152602060048201526018602482015277115490cdcc8c4e881a5b9d985b1a59081d1bdad95b88125160421b6044820152606401610605565b50565b600081815260046020526040902080546001600160a01b0319166001600160a01b0384169081179091558190610d258261070d565b6001600160a01b03167f8c5be1e5ebec7d5bd14f71427d1e84f3dd0314c0f7b2291e5b200ac8c7c3b92560405160405180910390a45050565b600080610d6a8361070d565b9050806001600160a01b0316846001600160a01b03161480610db157506001600160a01b0380821660009081526005602090815260408083209388168352929052205460ff165b80610a645750836001600160a01b0316610dca84610569565b6001600160a01b031614949350505050565b826001600160a01b0316610def8261070d565b6001600160a01b031614610e535760405162461bcd60e51b815260206004820152602560248201527f4552433732313a207472616e736665722066726f6d20696e636f72726563742060448201526437bbb732b960d91b6064820152608401610605565b6001600160a01b038216610eb55760405162461bcd60e51b8152602060048201526024808201527f4552433732313a207472616e7366657220746f20746865207a65726f206164646044820152637265737360e01b6064820152608401610605565b610ec08383836112c8565b610ecb600082610cf0565b6001600160a01b0383166000908152600360205260408120805460019290610ef4908490611e6f565b90915550506001600160a01b0382166000908152600360205260408120805460019290610f22908490611e43565b909155505060008181526002602052604080822080546001600160a01b0319166001600160a01b0386811691821790925591518493918716917fddf252ad1be2c89b69c2b068fc378daa952ba7f163c4a11628f55a4df523b3ef91a46106a6565b816001600160a01b0316836001600160a01b03161415610fe55760405162461bcd60e51b815260206004820152601960248201527f4552433732313a20617070726f766520746f2063616c6c6572000000000000006044820152606401610605565b6001600160a01b03838116600081815260056020908152604080832094871680845294825291829020805460ff191686151590811790915591519182527f17307eab39ab6107e8899845ad3d59bd9653f200f220920489ca2b5937696c31910160405180910390a3505050565b61105d848484610ddc565b61106984848484611352565b6109545760405162461bcd60e51b815260040161060590611da3565b606061109082610c8e565b60006110a760408051602081019091526000815290565b905060008151116110c757604051806020016040528060008152506110f2565b806110d1846110f9565b6040516020016110e2929190611af8565b6040516020818303038152906040525b9392505050565b60608161111e57506040805180820190915260018152600360fc1b60208201526104d2565b8160005b8115611148578061113281611eed565b91506111419050600a83611e5b565b9150611122565b60008167ffffffffffffffff81111561117157634e487b7160e01b600052604160045260246000fd5b6040519080825280601f01601f19166020018201604052801561119b576020820181803683370190505b5090505b8415610a64576111b0600183611e6f565b91506111bd600a86611f08565b6111c8906030611e43565b60f81b8183815181106111eb57634e487b7160e01b600052603260045260246000fd5b60200101906001600160f81b031916908160001a90535061120d600a86611e5b565b945061119f565b61091e82826040518060200160405280600081525061145f565b6000828152600260205260409020546001600160a01b03166112a95760405162461bcd60e51b815260206004820152602e60248201527f45524337323155524953746f726167653a2055524920736574206f66206e6f6e60448201526d32bc34b9ba32b73a103a37b5b2b760911b6064820152608401610605565b600082815260066020908152604090912082516106a6928401906115e1565b6000818152600a6020526040902060010154600160a81b900460ff16156106a6576001600160a01b038316158061130657506001600160a01b038216155b6106a65760405162461bcd60e51b815260206004820152601760248201527f49742063616e6e6f74206265207472616e7366657265640000000000000000006044820152606401610605565b60006001600160a01b0384163b1561145457604051630a85bd0160e11b81526001600160a01b0385169063150b7a0290611396903390899088908890600401611cad565b602060405180830381600087803b1580156113b057600080fd5b505af19250505080156113e0575060408051601f3d908101601f191682019092526113dd918101906118a4565b60015b61143a573d80801561140e576040519150601f19603f3d011682016040523d82523d6000602084013e611413565b606091505b5080516114325760405162461bcd60e51b815260040161060590611da3565b805181602001fd5b6001600160e01b031916630a85bd0160e11b149050610a64565b506001949350505050565b6114698383611492565b6114766000848484611352565b6106a65760405162461bcd60e51b815260040161060590611da3565b6001600160a01b0382166114e85760405162461bcd60e51b815260206004820181905260248201527f4552433732313a206d696e7420746f20746865207a65726f20616464726573736044820152606401610605565b6000818152600260205260409020546001600160a01b03161561154d5760405162461bcd60e51b815260206004820152601c60248201527f4552433732313a20746f6b656e20616c7265616479206d696e746564000000006044820152606401610605565b611559600083836112c8565b6001600160a01b0382166000908152600360205260408120805460019290611582908490611e43565b909155505060008181526002602052604080822080546001600160a01b0319166001600160a01b03861690811790915590518392907fddf252ad1be2c89b69c2b068fc378daa952ba7f163c4a11628f55a4df523b3ef908290a461091e565b8280546115ed90611eb2565b90600052602060002090601f01602090048101928261160f5760008555611655565b82601f1061162857805160ff1916838001178555611655565b82800160010185558215611655579182015b8281111561165557825182559160200191906001019061163a565b50611661929150611665565b5090565b5b808211156116615760008155600101611666565b600067ffffffffffffffff8084111561169557611695611f48565b604051601f8501601f19908116603f011681019082821181831017156116bd576116bd611f48565b816040528093508581528686860111156116d657600080fd5b858560208301376000602087830101525050509392505050565b80356001600160a01b03811681146104d257600080fd5b803580151581146104d257600080fd5b600082601f830112611727578081fd5b6110f28383356020850161167a565b600060208284031215611747578081fd5b6110f2826116f0565b60008060408385031215611762578081fd5b61176b836116f0565b9150611779602084016116f0565b90509250929050565b600080600060608486031215611796578081fd5b61179f846116f0565b92506117ad602085016116f0565b9150604084013590509250925092565b600080600080608085870312156117d2578081fd5b6117db856116f0565b93506117e9602086016116f0565b925060408501359150606085013567ffffffffffffffff81111561180b578182fd5b8501601f8101871361181b578182fd5b61182a8782356020840161167a565b91505092959194509250565b60008060408385031215611848578182fd5b611851836116f0565b915061177960208401611707565b60008060408385031215611871578182fd5b61187a836116f0565b946020939093013593505050565b600060208284031215611899578081fd5b81356110f281611f5e565b6000602082840312156118b5578081fd5b81516110f281611f5e565b600080600080600060a086880312156118d7578081fd5b853567ffffffffffffffff808211156118ee578283fd5b6118fa89838a01611717565b9650602088013591508082111561190f578283fd5b61191b89838a01611717565b95506040880135915080821115611930578283fd5b61193c89838a01611717565b9450606088013593506080880135915080821115611958578283fd5b5061196588828901611717565b9150509295509295909350565b6000806000806000806000806000806101408b8d031215611991578485fd5b8a3567ffffffffffffffff808211156119a8578687fd5b6119b48e838f01611717565b9b5060208d01359a5060408d01359150808211156119d0578687fd5b6119dc8e838f01611717565b995060608d01359150808211156119f1578687fd5b6119fd8e838f01611717565b985060808d01359750611a1260a08e016116f0565b9650611a2060c08e01611707565b955060e08d0135915080821115611a35578485fd5b611a418e838f01611717565b94506101008d0135915080821115611a57578384fd5b611a638e838f01611717565b93506101208d0135915080821115611a79578283fd5b50611a868d828e01611717565b9150509295989b9194979a5092959850565b600060208284031215611aa9578081fd5b5035919050565b60008151808452611ac8816020860160208601611e86565b601f01601f19169290920160200192915050565b60008151611aee818560208601611e86565b9290920192915050565b60008351611b0a818460208801611e86565b835190830190611b1e818360208801611e86565b01949350505050565b683d913730b6b2911d1160b91b81528551600090611b4c816009850160208b01611e86565b71111610113232b9b1b934b83a34b7b7111d1160711b6009918401918201528651611b7e81601b840160208b01611e86565b7f222c202261747472696275746573223a5b7b2274726169745f74797065223a20601b9290910191820152741139b2b934b0b62fb7379116113b30b63ab2911d1160591b603b8201528551611bda816050840160208a01611e86565b7f227d2c7b2274726169745f74797065223a2022526172697479222c2276616c75605092909101918201526332911d1160e11b60708201528451611c25816074840160208901611e86565b611c62611c54611c4e6074848601016d113eae96101134b6b0b3b2911d1160911b8152600e0190565b87611adc565b61227d60f01b815260020190565b9998505050505050505050565b60007519185d184e985c1c1b1a58d85d1a5bdb8bda9cdbdb8b60521b82528251611ca0816016850160208701611e86565b9190910160160192915050565b6001600160a01b0385811682528416602082015260408101839052608060608201819052600090611ce090830184611ab0565b9695505050505050565b6000602082526110f26020830184611ab0565b6000610120808352611d118184018d611ab0565b602084018c90526001600160a01b038b166040850152606084018a905283810360808501529050611d428189611ab0565b905082810360a0840152611d568188611ab0565b905082810360c0840152611d6a8187611ab0565b905082810360e0840152611d7e8186611ab0565b9050828103610100840152611d938185611ab0565b9c9b505050505050505050505050565b60208082526032908201527f4552433732313a207472616e7366657220746f206e6f6e20455243373231526560408201527131b2b4bb32b91034b6b83632b6b2b73a32b960711b606082015260800190565b6020808252602e908201527f4552433732313a2063616c6c6572206973206e6f7420746f6b656e206f776e6560408201526d1c881b9bdc88185c1c1c9bdd995960921b606082015260800190565b60008219821115611e5657611e56611f1c565b500190565b600082611e6a57611e6a611f32565b500490565b600082821015611e8157611e81611f1c565b500390565b60005b83811015611ea1578181015183820152602001611e89565b838111156109545750506000910152565b600181811c90821680611ec657607f821691505b60208210811415611ee757634e487b7160e01b600052602260045260246000fd5b50919050565b6000600019821415611f0157611f01611f1c565b5060010190565b600082611f1757611f17611f32565b500690565b634e487b7160e01b600052601160045260246000fd5b634e487b7160e01b600052601260045260246000fd5b634e487b7160e01b600052604160045260246000fd5b6001600160e01b031981168114610ced57600080fdfea26469706673582212203be70b125ec63108af87b3101be4081ecd292b19079a832f0db718507810f8f564736f6c63430008030033",
  "linkReferences": {},
  "deployedLinkReferences": {}
}