{
  "_format": "hh-sol-artifact-1",
  "contractName": "dMarket",
  "sourceName": "contracts/dMarket.sol",
  "abi": [
    {
      "inputs": [],
      "stateMutability": "nonpayable",
      "type": "constructor"
    },
    {
      "anonymous": false,
      "inputs": [
        {
          "indexed": true,
          "internalType": "address",
          "name": "owner",
          "type": "address"
        },
        {
          "indexed": true,
          "internalType": "address",
          "name": "approved",
          "type": "address"
        },
        {
          "indexed": true,
          "internalType": "uint256",
          "name": "tokenId",
          "type": "uint256"
        }
      ],
      "name": "Approval",
      "type": "event"
    },
    {
      "anonymous": false,
      "inputs": [
        {
          "indexed": true,
          "internalType": "address",
          "name": "owner",
          "type": "address"
        },
        {
          "indexed": true,
          "internalType": "address",
          "name": "operator",
          "type": "address"
        },
        {
          "indexed": false,
          "internalType": "bool",
          "name": "approved",
          "type": "bool"
        }
      ],
      "name": "ApprovalForAll",
      "type": "event"
    },
    {
      "anonymous": false,
      "inputs": [
        {
          "indexed": true,
          "internalType": "address",
          "name": "_buyer",
          "type": "address"
        },
        {
          "indexed": true,
          "internalType": "uint256",
          "name": "_tokenId",
          "type": "uint256"
        },
        {
          "indexed": false,
          "internalType": "uint256",
          "name": "_price",
          "type": "uint256"
        }
      ],
      "name": "BuyNFT",
      "type": "event"
    },
    {
      "anonymous": false,
      "inputs": [
        {
          "indexed": true,
          "internalType": "uint256",
          "name": "_tokenId",
          "type": "uint256"
        },
        {
          "indexed": false,
          "internalType": "string",
          "name": "_tokenURI",
          "type": "string"
        },
        {
          "indexed": true,
          "internalType": "address",
          "name": "_owner",
          "type": "address"
        },
        {
          "indexed": false,
          "internalType": "uint256",
          "name": "_price",
          "type": "uint256"
        }
      ],
      "name": "CreateNFT",
      "type": "event"
    },
    {
      "anonymous": false,
      "inputs": [
        {
          "indexed": true,
          "internalType": "address",
          "name": "from",
          "type": "address"
        },
        {
          "indexed": true,
          "internalType": "address",
          "name": "to",
          "type": "address"
        },
        {
          "indexed": true,
          "internalType": "uint256",
          "name": "tokenId",
          "type": "uint256"
        }
      ],
      "name": "Transfer",
      "type": "event"
    },
    {
      "anonymous": false,
      "inputs": [
        {
          "indexed": true,
          "internalType": "address",
          "name": "_from",
          "type": "address"
        },
        {
          "indexed": true,
          "internalType": "address",
          "name": "_to",
          "type": "address"
        },
        {
          "indexed": true,
          "internalType": "uint256",
          "name": "_tokenId",
          "type": "uint256"
        }
      ],
      "name": "TransferNFT",
      "type": "event"
    },
    {
      "inputs": [
        {
          "internalType": "address",
          "name": "to",
          "type": "address"
        },
        {
          "internalType": "uint256",
          "name": "tokenId",
          "type": "uint256"
        }
      ],
      "name": "approve",
      "outputs": [],
      "stateMutability": "nonpayable",
      "type": "function"
    },
    {
      "inputs": [
        {
          "internalType": "address",
          "name": "owner",
          "type": "address"
        }
      ],
      "name": "balanceOf",
      "outputs": [
        {
          "internalType": "uint256",
          "name": "",
          "type": "uint256"
        }
      ],
      "stateMutability": "view",
      "type": "function"
    },
    {
      "inputs": [
        {
          "internalType": "uint256",
          "name": "_tokenId",
          "type": "uint256"
        }
      ],
      "name": "buyNFT",
      "outputs": [],
      "stateMutability": "payable",
      "type": "function"
    },
    {
      "inputs": [
        {
          "internalType": "string",
          "name": "_tokenURI",
          "type": "string"
        },
        {
          "internalType": "uint256",
          "name": "_price",
          "type": "uint256"
        }
      ],
      "name": "createNFT",
      "outputs": [],
      "stateMutability": "payable",
      "type": "function"
    },
    {
      "inputs": [
        {
          "internalType": "uint256",
          "name": "tokenId",
          "type": "uint256"
        }
      ],
      "name": "getApproved",
      "outputs": [
        {
          "internalType": "address",
          "name": "",
          "type": "address"
        }
      ],
      "stateMutability": "view",
      "type": "function"
    },
    {
      "inputs": [],
      "name": "getNFTCount",
      "outputs": [
        {
          "internalType": "uint256",
          "name": "",
          "type": "uint256"
        }
      ],
      "stateMutability": "view",
      "type": "function"
    },
    {
      "inputs": [
        {
          "internalType": "address",
          "name": "owner",
          "type": "address"
        },
        {
          "internalType": "address",
          "name": "operator",
          "type": "address"
        }
      ],
      "name": "isApprovedForAll",
      "outputs": [
        {
          "internalType": "bool",
          "name": "",
          "type": "bool"
        }
      ],
      "stateMutability": "view",
      "type": "function"
    },
    {
      "inputs": [
        {
          "internalType": "uint256",
          "name": "_tokenId",
          "type": "uint256"
        },
        {
          "internalType": "uint256",
          "name": "_price",
          "type": "uint256"
        }
      ],
      "name": "markNFTForSale",
      "outputs": [],
      "stateMutability": "nonpayable",
      "type": "function"
    },
    {
      "inputs": [],
      "name": "name",
      "outputs": [
        {
          "internalType": "string",
          "name": "",
          "type": "string"
        }
      ],
      "stateMutability": "view",
      "type": "function"
    },
    {
      "inputs": [
        {
          "internalType": "uint256",
          "name": "",
          "type": "uint256"
        }
      ],
      "name": "nfts",
      "outputs": [
        {
          "internalType": "uint256",
          "name": "tokenId",
          "type": "uint256"
        },
        {
          "internalType": "uint256",
          "name": "price",
          "type": "uint256"
        },
        {
          "internalType": "address payable",
          "name": "owner",
          "type": "address"
        },
        {
          "internalType": "bool",
          "name": "isForSale",
          "type": "bool"
        }
      ],
      "stateMutability": "view",
      "type": "function"
    },
    {
      "inputs": [],
      "name": "owner",
      "outputs": [
        {
          "internalType": "address payable",
          "name": "",
          "type": "address"
        }
      ],
      "stateMutability": "view",
      "type": "function"
    },
    {
      "inputs": [
        {
          "internalType": "uint256",
          "name": "tokenId",
          "type": "uint256"
        }
      ],
      "name": "ownerOf",
      "outputs": [
        {
          "internalType": "address",
          "name": "",
          "type": "address"
        }
      ],
      "stateMutability": "view",
      "type": "function"
    },
    {
      "inputs": [
        {
          "internalType": "address",
          "name": "from",
          "type": "address"
        },
        {
          "internalType": "address",
          "name": "to",
          "type": "address"
        },
        {
          "internalType": "uint256",
          "name": "tokenId",
          "type": "uint256"
        }
      ],
      "name": "safeTransferFrom",
      "outputs": [],
      "stateMutability": "nonpayable",
      "type": "function"
    },
    {
      "inputs": [
        {
          "internalType": "address",
          "name": "from",
          "type": "address"
        },
        {
          "internalType": "address",
          "name": "to",
          "type": "address"
        },
        {
          "internalType": "uint256",
          "name": "tokenId",
          "type": "uint256"
        },
        {
          "internalType": "bytes",
          "name": "data",
          "type": "bytes"
        }
      ],
      "name": "safeTransferFrom",
      "outputs": [],
      "stateMutability": "nonpayable",
      "type": "function"
    },
    {
      "inputs": [
        {
          "internalType": "address",
          "name": "operator",
          "type": "address"
        },
        {
          "internalType": "bool",
          "name": "approved",
          "type": "bool"
        }
      ],
      "name": "setApprovalForAll",
      "outputs": [],
      "stateMutability": "nonpayable",
      "type": "function"
    },
    {
      "inputs": [
        {
          "internalType": "bytes4",
          "name": "interfaceId",
          "type": "bytes4"
        }
      ],
      "name": "supportsInterface",
      "outputs": [
        {
          "internalType": "bool",
          "name": "",
          "type": "bool"
        }
      ],
      "stateMutability": "view",
      "type": "function"
    },
    {
      "inputs": [],
      "name": "symbol",
      "outputs": [
        {
          "internalType": "string",
          "name": "",
          "type": "string"
        }
      ],
      "stateMutability": "view",
      "type": "function"
    },
    {
      "inputs": [
        {
          "internalType": "uint256",
          "name": "tokenId",
          "type": "uint256"
        }
      ],
      "name": "tokenURI",
      "outputs": [
        {
          "internalType": "string",
          "name": "",
          "type": "string"
        }
      ],
      "stateMutability": "view",
      "type": "function"
    },
    {
      "inputs": [
        {
          "internalType": "address",
          "name": "from",
          "type": "address"
        },
        {
          "internalType": "address",
          "name": "to",
          "type": "address"
        },
        {
          "internalType": "uint256",
          "name": "tokenId",
          "type": "uint256"
        }
      ],
      "name": "transferFrom",
      "outputs": [],
      "stateMutability": "nonpayable",
      "type": "function"
    },
    {
      "inputs": [
        {
          "internalType": "address",
          "name": "_to",
          "type": "address"
        },
        {
          "internalType": "uint256",
          "name": "_tokenId",
          "type": "uint256"
        }
      ],
      "name": "transferNFT",
      "outputs": [],
      "stateMutability": "nonpayable",
      "type": "function"
    }
  ],
  "bytecode": "0x60806040526001600755662386f26fc100006009553480156200002157600080fd5b5060408051808201825260078152661913585c9ad95d60ca1b602080830191825283518085019094526004845263111352d560e21b9084015281519192916200006d916000916200009e565b508051620000839060019060208401906200009e565b5050600880546001600160a01b031916331790555062000181565b828054620000ac9062000144565b90600052602060002090601f016020900481019282620000d057600085556200011b565b82601f10620000eb57805160ff19168380011785556200011b565b828001600101855582156200011b579182015b828111156200011b578251825591602001919060010190620000fe565b50620001299291506200012d565b5090565b5b808211156200012957600081556001016200012e565b600181811c908216806200015957607f821691505b602082108114156200017b57634e487b7160e01b600052602260045260246000fd5b50919050565b611dde80620001916000396000f3fe60806040526004361061011f5760003560e01c806354279637116100a057806395d89b411161006457806395d89b4114610380578063a22cb46514610395578063b88d4fde146103b5578063c87b56dd146103d5578063e985e9c5146103f55761011f565b806354279637146102dd5780636352211e1461030057806370a08231146103205780638da5cb5b1461034057806394ab67fe146103605761011f565b806323b872dd116100e757806323b872dd146101f5578063265aa62114610215578063268291551461029757806342842e0e146102aa57806351ed8288146102ca5761011f565b806301ffc9a71461012457806306fdde0314610159578063081812fc1461017b578063092f6acc146101b3578063095ea7b3146101d5575b600080fd5b34801561013057600080fd5b5061014461013f366004611a43565b61043e565b60405190151581526020015b60405180910390f35b34801561016557600080fd5b5061016e610492565b6040516101509190611ba2565b34801561018757600080fd5b5061019b610196366004611ad1565b610524565b6040516001600160a01b039091168152602001610150565b3480156101bf57600080fd5b506101d36101ce366004611ae9565b61054b565b005b3480156101e157600080fd5b506101d36101f0366004611a1a565b61064e565b34801561020157600080fd5b506101d361021036600461192c565b610764565b34801561022157600080fd5b50610266610230366004611ad1565b600a602052600090815260409020805460018201546002909201549091906001600160a01b03811690600160a01b900460ff1684565b604051610150949392919093845260208401929092526001600160a01b031660408301521515606082015260800190565b6101d36102a5366004611a7b565b610795565b3480156102b657600080fd5b506101d36102c536600461192c565b610903565b6101d36102d8366004611ad1565b61091e565b3480156102e957600080fd5b506102f2610b93565b604051908152602001610150565b34801561030c57600080fd5b5061019b61031b366004611ad1565b610ba9565b34801561032c57600080fd5b506102f261033b3660046118e0565b610c09565b34801561034c57600080fd5b5060085461019b906001600160a01b031681565b34801561036c57600080fd5b506101d361037b366004611a1a565b610c8f565b34801561038c57600080fd5b5061016e610da0565b3480156103a157600080fd5b506101d36103b03660046119e0565b610daf565b3480156103c157600080fd5b506101d36103d0366004611967565b610dbe565b3480156103e157600080fd5b5061016e6103f0366004611ad1565b610df6565b34801561040157600080fd5b506101446104103660046118fa565b6001600160a01b03918216600090815260056020908152604080832093909416825291909152205460ff1690565b60006001600160e01b031982166380ac58cd60e01b148061046f57506001600160e01b03198216635b5e139f60e01b145b8061048a57506301ffc9a760e01b6001600160e01b03198316145b90505b919050565b6060600080546104a190611ce6565b80601f01602080910402602001604051908101604052809291908181526020018280546104cd90611ce6565b801561051a5780601f106104ef5761010080835404028352916020019161051a565b820191906000526020600020905b8154815290600101906020018083116104fd57829003601f168201915b5050505050905090565b600061052f82610f08565b506000908152600460205260409020546001600160a01b031690565b6000828152600260205260409020546001600160a01b03166105a95760405162461bcd60e51b815260206004820152601260248201527113919508191bd95cc81b9bdd08195e1a5cdd60721b60448201526064015b60405180910390fd5b6000828152600a60205260409020600201546001600160a01b031633146106215760405162461bcd60e51b815260206004820152602660248201527f596f752063616e206e6f74206d61726b206f7468657273204e465420666f722060448201526573616c652e2160d01b60648201526084016105a0565b6000918252600a60205260409091206001810191909155600201805460ff60a01b1916600160a01b179055565b600061065982610ba9565b9050806001600160a01b0316836001600160a01b031614156106c75760405162461bcd60e51b815260206004820152602160248201527f4552433732313a20617070726f76616c20746f2063757272656e74206f776e656044820152603960f91b60648201526084016105a0565b336001600160a01b03821614806106e357506106e38133610410565b6107555760405162461bcd60e51b815260206004820152603e60248201527f4552433732313a20617070726f76652063616c6c6572206973206e6f7420746f60448201527f6b656e206f776e6572206e6f7220617070726f76656420666f7220616c6c000060648201526084016105a0565b61075f8383610f6a565b505050565b61076e3382610fd8565b61078a5760405162461bcd60e51b81526004016105a090611c29565b61075f838383611056565b60095434146107e65760405162461bcd60e51b815260206004820152601e60248201527f596f75206d7573742070617920746865206c697374696e67207072696365000060448201526064016105a0565b6107f2336007546111f2565b6107fe6007548361120c565b60408051608081018252600754808252602080830185815233848601908152600060608601818152948152600a9093528583209451855590516001850155516002909301805492511515600160a01b026001600160a81b03199093166001600160a01b039485161792909217909155600854925192909116913480156108fc0292909190818181858888f1935050505015801561089f573d6000803e3d6000fd5b50600780549060006108b083611d21565b909155505060075433906108c690600190611ca3565b7f6bec5b594585f8c2d37d991853d8f5907b3cdd2f6bf5c0eac89f8246cc50009984846040516108f7929190611bb5565b60405180910390a35050565b61075f83838360405180602001604052806000815250610dbe565b6000818152600260205260409020546001600160a01b03166109775760405162461bcd60e51b815260206004820152601260248201527113919508191bd95cc81b9bdd08195e1a5cdd60721b60448201526064016105a0565b6000818152600a6020526040902060020154600160a01b900460ff166109d55760405162461bcd60e51b81526020600482015260136024820152724e4654206973206e6f7420666f722073616c6560681b60448201526064016105a0565b6000818152600a60205260409020600101543414610a4b5760405162461bcd60e51b815260206004820152602d60248201527f5072696365206d75737420626520657175616c20746f2074686520707269636560448201526c1037b3103a3432903a37b5b2b760991b60648201526084016105a0565b6000818152600a60205260409020600201546001600160a01b0316331415610ab55760405162461bcd60e51b815260206004820152601e60248201527f596f752063616e206e6f742062757920796f7572206f776e204e46542e21000060448201526064016105a0565b6000818152600a6020526040902060020154610adb906001600160a01b03163383611056565b6000818152600a60205260408082206002015490516001600160a01b03909116913480156108fc02929091818181858888f19350505050158015610b23573d6000803e3d6000fd5b506000818152600a60209081526040918290206002810180546001600160a81b0319163360ff60a01b198116919091179091556001909101549251928352839290917f5d963241241cfe9e161d13500d628058954b3febfde03e4b1f4071370e72fe2b910160405180910390a350565b60006001600754610ba49190611ca3565b905090565b6000818152600260205260408120546001600160a01b03168061048a5760405162461bcd60e51b8152602060048201526018602482015277115490cdcc8c4e881a5b9d985b1a59081d1bdad95b88125160421b60448201526064016105a0565b60006001600160a01b038216610c735760405162461bcd60e51b815260206004820152602960248201527f4552433732313a2061646472657373207a65726f206973206e6f7420612076616044820152683634b21037bbb732b960b91b60648201526084016105a0565b506001600160a01b031660009081526003602052604090205490565b6000818152600a60205260409020600201546001600160a01b03163314610d1e5760405162461bcd60e51b815260206004820152603d60248201527f4e465420646f6573206e6f7420657869737473206f7220796f7520646f6e742060448201527f68617665207065726d697373696f6e20746f207472616e736665722e2100000060648201526084016105a0565b6000818152600a6020526040902060020154610d44906001600160a01b03168383611056565b6000818152600a602052604080822060020180546001600160a01b0319166001600160a01b0386169081179091559051839233917fa64cdec004d2859ac7547f4ed3252f53d0fa0b8dcbcc93a47894eee072714b629190a45050565b6060600180546104a190611ce6565b610dba3383836112a6565b5050565b610dc83383610fd8565b610de45760405162461bcd60e51b81526004016105a090611c29565b610df084848484611375565b50505050565b6060610e0182610f08565b60008281526006602052604081208054610e1a90611ce6565b80601f0160208091040260200160405190810160405280929190818152602001828054610e4690611ce6565b8015610e935780601f10610e6857610100808354040283529160200191610e93565b820191906000526020600020905b815481529060010190602001808311610e7657829003601f168201915b505050505090506000610eb160408051602081019091526000815290565b9050805160001415610ec55750905061048d565b815115610ef7578082604051602001610edf929190611b36565b6040516020818303038152906040529250505061048d565b610f00846113a8565b949350505050565b6000818152600260205260409020546001600160a01b0316610f675760405162461bcd60e51b8152602060048201526018602482015277115490cdcc8c4e881a5b9d985b1a59081d1bdad95b88125160421b60448201526064016105a0565b50565b600081815260046020526040902080546001600160a01b0319166001600160a01b0384169081179091558190610f9f82610ba9565b6001600160a01b03167f8c5be1e5ebec7d5bd14f71427d1e84f3dd0314c0f7b2291e5b200ac8c7c3b92560405160405180910390a45050565b600080610fe483610ba9565b9050806001600160a01b0316846001600160a01b0316148061102b57506001600160a01b0380821660009081526005602090815260408083209388168352929052205460ff165b80610f005750836001600160a01b031661104484610524565b6001600160a01b031614949350505050565b826001600160a01b031661106982610ba9565b6001600160a01b0316146110cd5760405162461bcd60e51b815260206004820152602560248201527f4552433732313a207472616e736665722066726f6d20696e636f72726563742060448201526437bbb732b960d91b60648201526084016105a0565b6001600160a01b03821661112f5760405162461bcd60e51b8152602060048201526024808201527f4552433732313a207472616e7366657220746f20746865207a65726f206164646044820152637265737360e01b60648201526084016105a0565b61113a600082610f6a565b6001600160a01b0383166000908152600360205260408120805460019290611163908490611ca3565b90915550506001600160a01b0382166000908152600360205260408120805460019290611191908490611c77565b909155505060008181526002602052604080822080546001600160a01b0319166001600160a01b0386811691821790925591518493918716917fddf252ad1be2c89b69c2b068fc378daa952ba7f163c4a11628f55a4df523b3ef91a461075f565b610dba82826040518060200160405280600081525061141c565b6000828152600260205260409020546001600160a01b03166112875760405162461bcd60e51b815260206004820152602e60248201527f45524337323155524953746f726167653a2055524920736574206f66206e6f6e60448201526d32bc34b9ba32b73a103a37b5b2b760911b60648201526084016105a0565b6000828152600660209081526040909120825161075f928401906117ba565b816001600160a01b0316836001600160a01b031614156113085760405162461bcd60e51b815260206004820152601960248201527f4552433732313a20617070726f766520746f2063616c6c65720000000000000060448201526064016105a0565b6001600160a01b03838116600081815260056020908152604080832094871680845294825291829020805460ff191686151590811790915591519182527f17307eab39ab6107e8899845ad3d59bd9653f200f220920489ca2b5937696c31910160405180910390a3505050565b611380848484611056565b61138c8484848461144f565b610df05760405162461bcd60e51b81526004016105a090611bd7565b60606113b382610f08565b60006113ca60408051602081019091526000815290565b905060008151116113ea5760405180602001604052806000815250611415565b806113f48461155c565b604051602001611405929190611b36565b6040516020818303038152906040525b9392505050565b6114268383611677565b611433600084848461144f565b61075f5760405162461bcd60e51b81526004016105a090611bd7565b60006001600160a01b0384163b1561155157604051630a85bd0160e11b81526001600160a01b0385169063150b7a0290611493903390899088908890600401611b65565b602060405180830381600087803b1580156114ad57600080fd5b505af19250505080156114dd575060408051601f3d908101601f191682019092526114da91810190611a5f565b60015b611537573d80801561150b576040519150601f19603f3d011682016040523d82523d6000602084013e611510565b606091505b50805161152f5760405162461bcd60e51b81526004016105a090611bd7565b805181602001fd5b6001600160e01b031916630a85bd0160e11b149050610f00565b506001949350505050565b60608161158157506040805180820190915260018152600360fc1b602082015261048d565b8160005b81156115ab578061159581611d21565b91506115a49050600a83611c8f565b9150611585565b60008167ffffffffffffffff8111156115d457634e487b7160e01b600052604160045260246000fd5b6040519080825280601f01601f1916602001820160405280156115fe576020820181803683370190505b5090505b8415610f0057611613600183611ca3565b9150611620600a86611d3c565b61162b906030611c77565b60f81b81838151811061164e57634e487b7160e01b600052603260045260246000fd5b60200101906001600160f81b031916908160001a905350611670600a86611c8f565b9450611602565b6001600160a01b0382166116cd5760405162461bcd60e51b815260206004820181905260248201527f4552433732313a206d696e7420746f20746865207a65726f206164647265737360448201526064016105a0565b6000818152600260205260409020546001600160a01b0316156117325760405162461bcd60e51b815260206004820152601c60248201527f4552433732313a20746f6b656e20616c7265616479206d696e7465640000000060448201526064016105a0565b6001600160a01b038216600090815260036020526040812080546001929061175b908490611c77565b909155505060008181526002602052604080822080546001600160a01b0319166001600160a01b03861690811790915590518392907fddf252ad1be2c89b69c2b068fc378daa952ba7f163c4a11628f55a4df523b3ef908290a4610dba565b8280546117c690611ce6565b90600052602060002090601f0160209004810192826117e8576000855561182e565b82601f1061180157805160ff191683800117855561182e565b8280016001018555821561182e579182015b8281111561182e578251825591602001919060010190611813565b5061183a92915061183e565b5090565b5b8082111561183a576000815560010161183f565b600067ffffffffffffffff8084111561186e5761186e611d7c565b604051601f8501601f19908116603f0116810190828211818310171561189657611896611d7c565b816040528093508581528686860111156118af57600080fd5b858560208301376000602087830101525050509392505050565b80356001600160a01b038116811461048d57600080fd5b6000602082840312156118f1578081fd5b611415826118c9565b6000806040838503121561190c578081fd5b611915836118c9565b9150611923602084016118c9565b90509250929050565b600080600060608486031215611940578081fd5b611949846118c9565b9250611957602085016118c9565b9150604084013590509250925092565b6000806000806080858703121561197c578081fd5b611985856118c9565b9350611993602086016118c9565b925060408501359150606085013567ffffffffffffffff8111156119b5578182fd5b8501601f810187136119c5578182fd5b6119d487823560208401611853565b91505092959194509250565b600080604083850312156119f2578182fd5b6119fb836118c9565b915060208301358015158114611a0f578182fd5b809150509250929050565b60008060408385031215611a2c578182fd5b611a35836118c9565b946020939093013593505050565b600060208284031215611a54578081fd5b813561141581611d92565b600060208284031215611a70578081fd5b815161141581611d92565b60008060408385031215611a8d578182fd5b823567ffffffffffffffff811115611aa3578283fd5b8301601f81018513611ab3578283fd5b611ac285823560208401611853565b95602094909401359450505050565b600060208284031215611ae2578081fd5b5035919050565b60008060408385031215611afb578182fd5b50508035926020909101359150565b60008151808452611b22816020860160208601611cba565b601f01601f19169290920160200192915050565b60008351611b48818460208801611cba565b835190830190611b5c818360208801611cba565b01949350505050565b6001600160a01b0385811682528416602082015260408101839052608060608201819052600090611b9890830184611b0a565b9695505050505050565b6000602082526114156020830184611b0a565b600060408252611bc86040830185611b0a565b90508260208301529392505050565b60208082526032908201527f4552433732313a207472616e7366657220746f206e6f6e20455243373231526560408201527131b2b4bb32b91034b6b83632b6b2b73a32b960711b606082015260800190565b6020808252602e908201527f4552433732313a2063616c6c6572206973206e6f7420746f6b656e206f776e6560408201526d1c881b9bdc88185c1c1c9bdd995960921b606082015260800190565b60008219821115611c8a57611c8a611d50565b500190565b600082611c9e57611c9e611d66565b500490565b600082821015611cb557611cb5611d50565b500390565b60005b83811015611cd5578181015183820152602001611cbd565b83811115610df05750506000910152565b600181811c90821680611cfa57607f821691505b60208210811415611d1b57634e487b7160e01b600052602260045260246000fd5b50919050565b6000600019821415611d3557611d35611d50565b5060010190565b600082611d4b57611d4b611d66565b500690565b634e487b7160e01b600052601160045260246000fd5b634e487b7160e01b600052601260045260246000fd5b634e487b7160e01b600052604160045260246000fd5b6001600160e01b031981168114610f6757600080fdfea264697066735822122099dc16c26186a1002f0170228840f016b946226dc6c1e926cc2e675f7811a7f664736f6c63430008030033",
  "linkReferences": {},
  "deployedLinkReferences": {}
}