{
  "_format": "hh-sol-artifact-1",
  "contractName": "dMarket",
  "sourceName": "contracts/dMarket.sol",
  "abi": [
    {
      "inputs": [],
      "stateMutability": "nonpayable",
      "type": "constructor"
    },
    {
      "anonymous": false,
      "inputs": [
        {
          "indexed": true,
          "internalType": "address",
          "name": "owner",
          "type": "address"
        },
        {
          "indexed": true,
          "internalType": "address",
          "name": "approved",
          "type": "address"
        },
        {
          "indexed": true,
          "internalType": "uint256",
          "name": "tokenId",
          "type": "uint256"
        }
      ],
      "name": "Approval",
      "type": "event"
    },
    {
      "anonymous": false,
      "inputs": [
        {
          "indexed": true,
          "internalType": "address",
          "name": "owner",
          "type": "address"
        },
        {
          "indexed": true,
          "internalType": "address",
          "name": "operator",
          "type": "address"
        },
        {
          "indexed": false,
          "internalType": "bool",
          "name": "approved",
          "type": "bool"
        }
      ],
      "name": "ApprovalForAll",
      "type": "event"
    },
    {
      "anonymous": false,
      "inputs": [
        {
          "indexed": true,
          "internalType": "address",
          "name": "_buyer",
          "type": "address"
        },
        {
          "indexed": true,
          "internalType": "uint256",
          "name": "_tokenId",
          "type": "uint256"
        },
        {
          "indexed": false,
          "internalType": "uint256",
          "name": "_price",
          "type": "uint256"
        }
      ],
      "name": "BuyNFT",
      "type": "event"
    },
    {
      "anonymous": false,
      "inputs": [
        {
          "indexed": true,
          "internalType": "uint256",
          "name": "_tokenId",
          "type": "uint256"
        },
        {
          "indexed": false,
          "internalType": "string",
          "name": "_tokenURI",
          "type": "string"
        },
        {
          "indexed": true,
          "internalType": "address",
          "name": "_owner",
          "type": "address"
        },
        {
          "indexed": false,
          "internalType": "uint256",
          "name": "_price",
          "type": "uint256"
        }
      ],
      "name": "CreateNFT",
      "type": "event"
    },
    {
      "anonymous": false,
      "inputs": [
        {
          "indexed": true,
          "internalType": "address",
          "name": "from",
          "type": "address"
        },
        {
          "indexed": true,
          "internalType": "address",
          "name": "to",
          "type": "address"
        },
        {
          "indexed": true,
          "internalType": "uint256",
          "name": "tokenId",
          "type": "uint256"
        }
      ],
      "name": "Transfer",
      "type": "event"
    },
    {
      "anonymous": false,
      "inputs": [
        {
          "indexed": true,
          "internalType": "address",
          "name": "_from",
          "type": "address"
        },
        {
          "indexed": true,
          "internalType": "address",
          "name": "_to",
          "type": "address"
        },
        {
          "indexed": true,
          "internalType": "uint256",
          "name": "_tokenId",
          "type": "uint256"
        }
      ],
      "name": "TransferNFT",
      "type": "event"
    },
    {
      "inputs": [
        {
          "internalType": "address",
          "name": "to",
          "type": "address"
        },
        {
          "internalType": "uint256",
          "name": "tokenId",
          "type": "uint256"
        }
      ],
      "name": "approve",
      "outputs": [],
      "stateMutability": "nonpayable",
      "type": "function"
    },
    {
      "inputs": [
        {
          "internalType": "address",
          "name": "owner",
          "type": "address"
        }
      ],
      "name": "balanceOf",
      "outputs": [
        {
          "internalType": "uint256",
          "name": "",
          "type": "uint256"
        }
      ],
      "stateMutability": "view",
      "type": "function"
    },
    {
      "inputs": [
        {
          "internalType": "uint256",
          "name": "_tokenId",
          "type": "uint256"
        }
      ],
      "name": "buyNFT",
      "outputs": [],
      "stateMutability": "payable",
      "type": "function"
    },
    {
      "inputs": [
        {
          "internalType": "string",
          "name": "_tokenURI",
          "type": "string"
        },
        {
          "internalType": "uint256",
          "name": "_price",
          "type": "uint256"
        },
        {
          "internalType": "string",
          "name": "_issueTime",
          "type": "string"
        },
        {
          "internalType": "uint256",
          "name": "_duration",
          "type": "uint256"
        },
        {
          "internalType": "uint256",
          "name": "_serialNo",
          "type": "uint256"
        },
        {
          "internalType": "address",
          "name": "_issuer",
          "type": "address"
        }
      ],
      "name": "createNFT",
      "outputs": [],
      "stateMutability": "payable",
      "type": "function"
    },
    {
      "inputs": [
        {
          "internalType": "uint256",
          "name": "tokenId",
          "type": "uint256"
        }
      ],
      "name": "getApproved",
      "outputs": [
        {
          "internalType": "address",
          "name": "",
          "type": "address"
        }
      ],
      "stateMutability": "view",
      "type": "function"
    },
    {
      "inputs": [],
      "name": "getNFTCount",
      "outputs": [
        {
          "internalType": "uint256",
          "name": "",
          "type": "uint256"
        }
      ],
      "stateMutability": "view",
      "type": "function"
    },
    {
      "inputs": [
        {
          "internalType": "uint256",
          "name": "_tokenId",
          "type": "uint256"
        }
      ],
      "name": "getNFTMetaData",
      "outputs": [
        {
          "internalType": "uint256",
          "name": "_price",
          "type": "uint256"
        },
        {
          "internalType": "string",
          "name": "_issueTime",
          "type": "string"
        },
        {
          "internalType": "uint256",
          "name": "_duration",
          "type": "uint256"
        },
        {
          "internalType": "uint256",
          "name": "_serialNo",
          "type": "uint256"
        },
        {
          "internalType": "address",
          "name": "_issuer",
          "type": "address"
        }
      ],
      "stateMutability": "view",
      "type": "function"
    },
    {
      "inputs": [
        {
          "internalType": "address",
          "name": "owner",
          "type": "address"
        },
        {
          "internalType": "address",
          "name": "operator",
          "type": "address"
        }
      ],
      "name": "isApprovedForAll",
      "outputs": [
        {
          "internalType": "bool",
          "name": "",
          "type": "bool"
        }
      ],
      "stateMutability": "view",
      "type": "function"
    },
    {
      "inputs": [
        {
          "internalType": "uint256",
          "name": "_tokenId",
          "type": "uint256"
        },
        {
          "internalType": "uint256",
          "name": "_price",
          "type": "uint256"
        }
      ],
      "name": "markNFTForSale",
      "outputs": [],
      "stateMutability": "nonpayable",
      "type": "function"
    },
    {
      "inputs": [],
      "name": "name",
      "outputs": [
        {
          "internalType": "string",
          "name": "",
          "type": "string"
        }
      ],
      "stateMutability": "view",
      "type": "function"
    },
    {
      "inputs": [
        {
          "internalType": "uint256",
          "name": "",
          "type": "uint256"
        }
      ],
      "name": "nfts",
      "outputs": [
        {
          "internalType": "uint256",
          "name": "tokenId",
          "type": "uint256"
        },
        {
          "internalType": "uint256",
          "name": "price",
          "type": "uint256"
        },
        {
          "internalType": "address payable",
          "name": "owner",
          "type": "address"
        },
        {
          "internalType": "bool",
          "name": "isForSale",
          "type": "bool"
        },
        {
          "internalType": "address",
          "name": "issuer",
          "type": "address"
        },
        {
          "internalType": "uint256",
          "name": "order_serial_number",
          "type": "uint256"
        },
        {
          "internalType": "string",
          "name": "issue_time",
          "type": "string"
        },
        {
          "internalType": "uint256",
          "name": "duration",
          "type": "uint256"
        }
      ],
      "stateMutability": "view",
      "type": "function"
    },
    {
      "inputs": [],
      "name": "owner",
      "outputs": [
        {
          "internalType": "address payable",
          "name": "",
          "type": "address"
        }
      ],
      "stateMutability": "view",
      "type": "function"
    },
    {
      "inputs": [
        {
          "internalType": "uint256",
          "name": "tokenId",
          "type": "uint256"
        }
      ],
      "name": "ownerOf",
      "outputs": [
        {
          "internalType": "address",
          "name": "",
          "type": "address"
        }
      ],
      "stateMutability": "view",
      "type": "function"
    },
    {
      "inputs": [
        {
          "internalType": "address",
          "name": "from",
          "type": "address"
        },
        {
          "internalType": "address",
          "name": "to",
          "type": "address"
        },
        {
          "internalType": "uint256",
          "name": "tokenId",
          "type": "uint256"
        }
      ],
      "name": "safeTransferFrom",
      "outputs": [],
      "stateMutability": "nonpayable",
      "type": "function"
    },
    {
      "inputs": [
        {
          "internalType": "address",
          "name": "from",
          "type": "address"
        },
        {
          "internalType": "address",
          "name": "to",
          "type": "address"
        },
        {
          "internalType": "uint256",
          "name": "tokenId",
          "type": "uint256"
        },
        {
          "internalType": "bytes",
          "name": "data",
          "type": "bytes"
        }
      ],
      "name": "safeTransferFrom",
      "outputs": [],
      "stateMutability": "nonpayable",
      "type": "function"
    },
    {
      "inputs": [
        {
          "internalType": "address",
          "name": "operator",
          "type": "address"
        },
        {
          "internalType": "bool",
          "name": "approved",
          "type": "bool"
        }
      ],
      "name": "setApprovalForAll",
      "outputs": [],
      "stateMutability": "nonpayable",
      "type": "function"
    },
    {
      "inputs": [
        {
          "internalType": "bytes4",
          "name": "interfaceId",
          "type": "bytes4"
        }
      ],
      "name": "supportsInterface",
      "outputs": [
        {
          "internalType": "bool",
          "name": "",
          "type": "bool"
        }
      ],
      "stateMutability": "view",
      "type": "function"
    },
    {
      "inputs": [],
      "name": "symbol",
      "outputs": [
        {
          "internalType": "string",
          "name": "",
          "type": "string"
        }
      ],
      "stateMutability": "view",
      "type": "function"
    },
    {
      "inputs": [
        {
          "internalType": "uint256",
          "name": "tokenId",
          "type": "uint256"
        }
      ],
      "name": "tokenURI",
      "outputs": [
        {
          "internalType": "string",
          "name": "",
          "type": "string"
        }
      ],
      "stateMutability": "view",
      "type": "function"
    },
    {
      "inputs": [
        {
          "internalType": "address",
          "name": "from",
          "type": "address"
        },
        {
          "internalType": "address",
          "name": "to",
          "type": "address"
        },
        {
          "internalType": "uint256",
          "name": "tokenId",
          "type": "uint256"
        }
      ],
      "name": "transferFrom",
      "outputs": [],
      "stateMutability": "nonpayable",
      "type": "function"
    },
    {
      "inputs": [
        {
          "internalType": "address",
          "name": "_to",
          "type": "address"
        },
        {
          "internalType": "uint256",
          "name": "_tokenId",
          "type": "uint256"
        }
      ],
      "name": "transferNFT",
      "outputs": [],
      "stateMutability": "nonpayable",
      "type": "function"
    }
  ],
  "bytecode": "0x60806040526001600755662386f26fc100006009553480156200002157600080fd5b5060408051808201825260078152661913585c9ad95d60ca1b602080830191825283518085019094526004845263111352d560e21b9084015281519192916200006d916000916200009e565b508051620000839060019060208401906200009e565b5050600880546001600160a01b031916331790555062000181565b828054620000ac9062000144565b90600052602060002090601f016020900481019282620000d057600085556200011b565b82601f10620000eb57805160ff19168380011785556200011b565b828001600101855582156200011b579182015b828111156200011b578251825591602001919060010190620000fe565b50620001299291506200012d565b5090565b5b808211156200012957600081556001016200012e565b600181811c908216806200015957607f821691505b602082108114156200017b57634e487b7160e01b600052602260045260246000fd5b50919050565b6120ed80620001916000396000f3fe60806040526004361061012a5760003560e01c80636352211e116100ab57806394ab67fe1161006f57806394ab67fe1461034e57806395d89b411461036e578063a22cb46514610383578063b88d4fde146103a3578063c87b56dd146103c3578063e985e9c5146103e35761012a565b80636352211e146102aa57806370a08231146102ca5780637d42fa6f146102ea57806388ef3f73146102fd5780638da5cb5b1461032e5761012a565b806323b872dd116100f257806323b872dd14610200578063265aa6211461022057806342842e0e1461025457806351ed82881461027457806354279637146102875761012a565b806301ffc9a71461012f57806306fdde0314610164578063081812fc14610186578063092f6acc146101be578063095ea7b3146101e0575b600080fd5b34801561013b57600080fd5b5061014f61014a366004611c7d565b61042c565b60405190151581526020015b60405180910390f35b34801561017057600080fd5b50610179610480565b60405161015b9190611e13565b34801561019257600080fd5b506101a66101a1366004611d42565b610512565b6040516001600160a01b03909116815260200161015b565b3480156101ca57600080fd5b506101de6101d9366004611d5a565b610539565b005b3480156101ec57600080fd5b506101de6101fb366004611c54565b61063c565b34801561020c57600080fd5b506101de61021b366004611b66565b610752565b34801561022c57600080fd5b5061024061023b366004611d42565b610783565b60405161015b989796959493929190611f27565b34801561026057600080fd5b506101de61026f366004611b66565b610860565b6101de610282366004611d42565b61087b565b34801561029357600080fd5b5061029c610af0565b60405190815260200161015b565b3480156102b657600080fd5b506101a66102c5366004611d42565b610b06565b3480156102d657600080fd5b5061029c6102e5366004611b1a565b610b66565b6101de6102f8366004611cb5565b610bec565b34801561030957600080fd5b5061031d610318366004611d42565b610dcc565b60405161015b959493929190611ee8565b34801561033a57600080fd5b506008546101a6906001600160a01b031681565b34801561035a57600080fd5b506101de610369366004611c54565b610eaa565b34801561037a57600080fd5b50610179610fbb565b34801561038f57600080fd5b506101de61039e366004611c1a565b610fca565b3480156103af57600080fd5b506101de6103be366004611ba1565b610fd9565b3480156103cf57600080fd5b506101796103de366004611d42565b611011565b3480156103ef57600080fd5b5061014f6103fe366004611b34565b6001600160a01b03918216600090815260056020908152604080832093909416825291909152205460ff1690565b60006001600160e01b031982166380ac58cd60e01b148061045d57506001600160e01b03198216635b5e139f60e01b145b8061047857506301ffc9a760e01b6001600160e01b03198316145b90505b919050565b60606000805461048f90611ff5565b80601f01602080910402602001604051908101604052809291908181526020018280546104bb90611ff5565b80156105085780601f106104dd57610100808354040283529160200191610508565b820191906000526020600020905b8154815290600101906020018083116104eb57829003601f168201915b5050505050905090565b600061051d82611123565b506000908152600460205260409020546001600160a01b031690565b6000828152600260205260409020546001600160a01b03166105975760405162461bcd60e51b815260206004820152601260248201527113919508191bd95cc81b9bdd08195e1a5cdd60721b60448201526064015b60405180910390fd5b6000828152600a60205260409020600201546001600160a01b0316331461060f5760405162461bcd60e51b815260206004820152602660248201527f596f752063616e206e6f74206d61726b206f7468657273204e465420666f722060448201526573616c652e2160d01b606482015260840161058e565b6000918252600a60205260409091206001810191909155600201805460ff60a01b1916600160a01b179055565b600061064782610b06565b9050806001600160a01b0316836001600160a01b031614156106b55760405162461bcd60e51b815260206004820152602160248201527f4552433732313a20617070726f76616c20746f2063757272656e74206f776e656044820152603960f91b606482015260840161058e565b336001600160a01b03821614806106d157506106d181336103fe565b6107435760405162461bcd60e51b815260206004820152603e60248201527f4552433732313a20617070726f76652063616c6c6572206973206e6f7420746f60448201527f6b656e206f776e6572206e6f7220617070726f76656420666f7220616c6c0000606482015260840161058e565b61074d8383611185565b505050565b61075c33826111f3565b6107785760405162461bcd60e51b815260040161058e90611e9a565b61074d838383611271565b600a60205260009081526040902080546001820154600283015460038401546004850154600586018054959694956001600160a01b0380861696600160a01b90960460ff169594169391906107d790611ff5565b80601f016020809104026020016040519081016040528092919081815260200182805461080390611ff5565b80156108505780601f1061082557610100808354040283529160200191610850565b820191906000526020600020905b81548152906001019060200180831161083357829003601f168201915b5050505050908060060154905088565b61074d83838360405180602001604052806000815250610fd9565b6000818152600260205260409020546001600160a01b03166108d45760405162461bcd60e51b815260206004820152601260248201527113919508191bd95cc81b9bdd08195e1a5cdd60721b604482015260640161058e565b6000818152600a6020526040902060020154600160a01b900460ff166109325760405162461bcd60e51b81526020600482015260136024820152724e4654206973206e6f7420666f722073616c6560681b604482015260640161058e565b6000818152600a602052604090206001015434146109a85760405162461bcd60e51b815260206004820152602d60248201527f5072696365206d75737420626520657175616c20746f2074686520707269636560448201526c1037b3103a3432903a37b5b2b760991b606482015260840161058e565b6000818152600a60205260409020600201546001600160a01b0316331415610a125760405162461bcd60e51b815260206004820152601e60248201527f596f752063616e206e6f742062757920796f7572206f776e204e46542e210000604482015260640161058e565b6000818152600a6020526040902060020154610a38906001600160a01b03163383611271565b6000818152600a60205260408082206002015490516001600160a01b03909116913480156108fc02929091818181858888f19350505050158015610a80573d6000803e3d6000fd5b506000818152600a60209081526040918290206002810180546001600160a81b0319163360ff60a01b198116919091179091556001909101549251928352839290917f5d963241241cfe9e161d13500d628058954b3febfde03e4b1f4071370e72fe2b910160405180910390a350565b60006001600754610b019190611fb2565b905090565b6000818152600260205260408120546001600160a01b0316806104785760405162461bcd60e51b8152602060048201526018602482015277115490cdcc8c4e881a5b9d985b1a59081d1bdad95b88125160421b604482015260640161058e565b60006001600160a01b038216610bd05760405162461bcd60e51b815260206004820152602960248201527f4552433732313a2061646472657373207a65726f206973206e6f7420612076616044820152683634b21037bbb732b960b91b606482015260840161058e565b506001600160a01b031660009081526003602052604090205490565b6009543414610c3d5760405162461bcd60e51b815260206004820152601e60248201527f596f75206d7573742070617920746865206c697374696e672070726963650000604482015260640161058e565b610c493360075461140d565b610c5560075487611427565b60408051610100810182526007548082526020808301898152338486019081526000606086018181526001600160a01b038981166080890190815260a089018c815260c08a018f815260e08b018f9052988552600a8852999093208851815594516001860155925160028501805492519185166001600160a81b031990931692909217600160a01b91151591909102179055516003830180546001600160a01b031916919092161790559351600485015590518051929392610d1d92600585019201906119d5565b5060e091909101516006909101556008546040516001600160a01b03909116903480156108fc02916000818181858888f19350505050158015610d64573d6000803e3d6000fd5b5060078054906000610d7583612030565b90915550506007543390610d8b90600190611fb2565b7f6bec5b594585f8c2d37d991853d8f5907b3cdd2f6bf5c0eac89f8246cc5000998888604051610dbc929190611e26565b60405180910390a3505050505050565b6000818152600a6020526040812060018101546006820154600483015460038401546005909401805460609587958695869591949390926001600160a01b0316908490610e1890611ff5565b80601f0160208091040260200160405190810160405280929190818152602001828054610e4490611ff5565b8015610e915780601f10610e6657610100808354040283529160200191610e91565b820191906000526020600020905b815481529060010190602001808311610e7457829003601f168201915b50989f939e50959c50939a509198509650505050505050565b6000818152600a60205260409020600201546001600160a01b03163314610f395760405162461bcd60e51b815260206004820152603d60248201527f4e465420646f6573206e6f7420657869737473206f7220796f7520646f6e742060448201527f68617665207065726d697373696f6e20746f207472616e736665722e21000000606482015260840161058e565b6000818152600a6020526040902060020154610f5f906001600160a01b03168383611271565b6000818152600a602052604080822060020180546001600160a01b0319166001600160a01b0386169081179091559051839233917fa64cdec004d2859ac7547f4ed3252f53d0fa0b8dcbcc93a47894eee072714b629190a45050565b60606001805461048f90611ff5565b610fd53383836114c1565b5050565b610fe333836111f3565b610fff5760405162461bcd60e51b815260040161058e90611e9a565b61100b84848484611590565b50505050565b606061101c82611123565b6000828152600660205260408120805461103590611ff5565b80601f016020809104026020016040519081016040528092919081815260200182805461106190611ff5565b80156110ae5780601f10611083576101008083540402835291602001916110ae565b820191906000526020600020905b81548152906001019060200180831161109157829003601f168201915b5050505050905060006110cc60408051602081019091526000815290565b90508051600014156110e05750905061047b565b8151156111125780826040516020016110fa929190611da7565b6040516020818303038152906040529250505061047b565b61111b846115c3565b949350505050565b6000818152600260205260409020546001600160a01b03166111825760405162461bcd60e51b8152602060048201526018602482015277115490cdcc8c4e881a5b9d985b1a59081d1bdad95b88125160421b604482015260640161058e565b50565b600081815260046020526040902080546001600160a01b0319166001600160a01b03841690811790915581906111ba82610b06565b6001600160a01b03167f8c5be1e5ebec7d5bd14f71427d1e84f3dd0314c0f7b2291e5b200ac8c7c3b92560405160405180910390a45050565b6000806111ff83610b06565b9050806001600160a01b0316846001600160a01b0316148061124657506001600160a01b0380821660009081526005602090815260408083209388168352929052205460ff165b8061111b5750836001600160a01b031661125f84610512565b6001600160a01b031614949350505050565b826001600160a01b031661128482610b06565b6001600160a01b0316146112e85760405162461bcd60e51b815260206004820152602560248201527f4552433732313a207472616e736665722066726f6d20696e636f72726563742060448201526437bbb732b960d91b606482015260840161058e565b6001600160a01b03821661134a5760405162461bcd60e51b8152602060048201526024808201527f4552433732313a207472616e7366657220746f20746865207a65726f206164646044820152637265737360e01b606482015260840161058e565b611355600082611185565b6001600160a01b038316600090815260036020526040812080546001929061137e908490611fb2565b90915550506001600160a01b03821660009081526003602052604081208054600192906113ac908490611f86565b909155505060008181526002602052604080822080546001600160a01b0319166001600160a01b0386811691821790925591518493918716917fddf252ad1be2c89b69c2b068fc378daa952ba7f163c4a11628f55a4df523b3ef91a461074d565b610fd5828260405180602001604052806000815250611637565b6000828152600260205260409020546001600160a01b03166114a25760405162461bcd60e51b815260206004820152602e60248201527f45524337323155524953746f726167653a2055524920736574206f66206e6f6e60448201526d32bc34b9ba32b73a103a37b5b2b760911b606482015260840161058e565b6000828152600660209081526040909120825161074d928401906119d5565b816001600160a01b0316836001600160a01b031614156115235760405162461bcd60e51b815260206004820152601960248201527f4552433732313a20617070726f766520746f2063616c6c657200000000000000604482015260640161058e565b6001600160a01b03838116600081815260056020908152604080832094871680845294825291829020805460ff191686151590811790915591519182527f17307eab39ab6107e8899845ad3d59bd9653f200f220920489ca2b5937696c31910160405180910390a3505050565b61159b848484611271565b6115a78484848461166a565b61100b5760405162461bcd60e51b815260040161058e90611e48565b60606115ce82611123565b60006115e560408051602081019091526000815290565b905060008151116116055760405180602001604052806000815250611630565b8061160f84611777565b604051602001611620929190611da7565b6040516020818303038152906040525b9392505050565b6116418383611892565b61164e600084848461166a565b61074d5760405162461bcd60e51b815260040161058e90611e48565b60006001600160a01b0384163b1561176c57604051630a85bd0160e11b81526001600160a01b0385169063150b7a02906116ae903390899088908890600401611dd6565b602060405180830381600087803b1580156116c857600080fd5b505af19250505080156116f8575060408051601f3d908101601f191682019092526116f591810190611c99565b60015b611752573d808015611726576040519150601f19603f3d011682016040523d82523d6000602084013e61172b565b606091505b50805161174a5760405162461bcd60e51b815260040161058e90611e48565b805181602001fd5b6001600160e01b031916630a85bd0160e11b14905061111b565b506001949350505050565b60608161179c57506040805180820190915260018152600360fc1b602082015261047b565b8160005b81156117c657806117b081612030565b91506117bf9050600a83611f9e565b91506117a0565b60008167ffffffffffffffff8111156117ef57634e487b7160e01b600052604160045260246000fd5b6040519080825280601f01601f191660200182016040528015611819576020820181803683370190505b5090505b841561111b5761182e600183611fb2565b915061183b600a8661204b565b611846906030611f86565b60f81b81838151811061186957634e487b7160e01b600052603260045260246000fd5b60200101906001600160f81b031916908160001a90535061188b600a86611f9e565b945061181d565b6001600160a01b0382166118e85760405162461bcd60e51b815260206004820181905260248201527f4552433732313a206d696e7420746f20746865207a65726f2061646472657373604482015260640161058e565b6000818152600260205260409020546001600160a01b03161561194d5760405162461bcd60e51b815260206004820152601c60248201527f4552433732313a20746f6b656e20616c7265616479206d696e74656400000000604482015260640161058e565b6001600160a01b0382166000908152600360205260408120805460019290611976908490611f86565b909155505060008181526002602052604080822080546001600160a01b0319166001600160a01b03861690811790915590518392907fddf252ad1be2c89b69c2b068fc378daa952ba7f163c4a11628f55a4df523b3ef908290a4610fd5565b8280546119e190611ff5565b90600052602060002090601f016020900481019282611a035760008555611a49565b82601f10611a1c57805160ff1916838001178555611a49565b82800160010185558215611a49579182015b82811115611a49578251825591602001919060010190611a2e565b50611a55929150611a59565b5090565b5b80821115611a555760008155600101611a5a565b600067ffffffffffffffff80841115611a8957611a8961208b565b604051601f8501601f19908116603f01168101908282118183101715611ab157611ab161208b565b81604052809350858152868686011115611aca57600080fd5b858560208301376000602087830101525050509392505050565b80356001600160a01b038116811461047b57600080fd5b600082601f830112611b0b578081fd5b61163083833560208501611a6e565b600060208284031215611b2b578081fd5b61163082611ae4565b60008060408385031215611b46578081fd5b611b4f83611ae4565b9150611b5d60208401611ae4565b90509250929050565b600080600060608486031215611b7a578081fd5b611b8384611ae4565b9250611b9160208501611ae4565b9150604084013590509250925092565b60008060008060808587031215611bb6578081fd5b611bbf85611ae4565b9350611bcd60208601611ae4565b925060408501359150606085013567ffffffffffffffff811115611bef578182fd5b8501601f81018713611bff578182fd5b611c0e87823560208401611a6e565b91505092959194509250565b60008060408385031215611c2c578182fd5b611c3583611ae4565b915060208301358015158114611c49578182fd5b809150509250929050565b60008060408385031215611c66578182fd5b611c6f83611ae4565b946020939093013593505050565b600060208284031215611c8e578081fd5b8135611630816120a1565b600060208284031215611caa578081fd5b8151611630816120a1565b60008060008060008060c08789031215611ccd578182fd5b863567ffffffffffffffff80821115611ce4578384fd5b611cf08a838b01611afb565b9750602089013596506040890135915080821115611d0c578384fd5b50611d1989828a01611afb565b9450506060870135925060808701359150611d3660a08801611ae4565b90509295509295509295565b600060208284031215611d53578081fd5b5035919050565b60008060408385031215611d6c578182fd5b50508035926020909101359150565b60008151808452611d93816020860160208601611fc9565b601f01601f19169290920160200192915050565b60008351611db9818460208801611fc9565b835190830190611dcd818360208801611fc9565b01949350505050565b6001600160a01b0385811682528416602082015260408101839052608060608201819052600090611e0990830184611d7b565b9695505050505050565b6000602082526116306020830184611d7b565b600060408252611e396040830185611d7b565b90508260208301529392505050565b60208082526032908201527f4552433732313a207472616e7366657220746f206e6f6e20455243373231526560408201527131b2b4bb32b91034b6b83632b6b2b73a32b960711b606082015260800190565b6020808252602e908201527f4552433732313a2063616c6c6572206973206e6f7420746f6b656e206f776e6560408201526d1c881b9bdc88185c1c1c9bdd995960921b606082015260800190565b600086825260a06020830152611f0160a0830187611d7b565b60408301959095525060608101929092526001600160a01b031660809091015292915050565b888152602081018890526001600160a01b03878116604083015286151560608301528516608082015260a0810184905261010060c08201819052600090611f7083820186611d7b565b9150508260e08301529998505050505050505050565b60008219821115611f9957611f9961205f565b500190565b600082611fad57611fad612075565b500490565b600082821015611fc457611fc461205f565b500390565b60005b83811015611fe4578181015183820152602001611fcc565b8381111561100b5750506000910152565b600181811c9082168061200957607f821691505b6020821081141561202a57634e487b7160e01b600052602260045260246000fd5b50919050565b60006000198214156120445761204461205f565b5060010190565b60008261205a5761205a612075565b500690565b634e487b7160e01b600052601160045260246000fd5b634e487b7160e01b600052601260045260246000fd5b634e487b7160e01b600052604160045260246000fd5b6001600160e01b03198116811461118257600080fdfea2646970667358221220ecfb42dd69f2f5dcc74f704d870ba6171440df51db809fc82192d3cd2c7d790364736f6c63430008030033",
  "linkReferences": {},
  "deployedLinkReferences": {}
}